:020000040800F2
:10000000F0B8002035020008011900085514000856
:10001000FD180008AF060008892200080000000053
:10002000000000000000000000000000CB1C0008E1
:100030000709000800000000D11900080D1F000882
:100040004F0200084F0200084F0200084F0200084C
:100050004F0200084F0200084F0200084F0200083C
:100060004F0200084F0200084F0200084F0200082C
:100070004F0200084F0200084F0200084F0200081C
:10008000B5060008D50600084F0200084F02000818
:100090004F0200084F0200084F0200084F020008FC
:1000A0004F0200084F0200084F0200084F020008EC
:1000B0004F0200087D1F00084F0200084F02000891
:1000C0004F0200084F0200084F0200084F020008CC
:1000D0004F0200084F020008A12000084F0200084C
:1000E0004F0200084F0200084F0200080000000005
:1000F0000000000000000000000000000000000000
:1001000000000000000000004F0200084F0200083D
:100110004F0200084F0200084F0200084F0200087B
:100120004F0200084F0200084F0200084F0200086B
:100130004F020008150B00084F0200084F0200088C
:100140004F0200084F0200084F0200084F0200084B
:1001500000F002F800F05FF80AA090E8000C82447A
:100160008344AAF10107DA4501D100F054F8AFF257
:10017000090EBAE80F0013F0010F18BFFB1A43F085
:1001800001031847C8730000E87300000A444FF0E9
:10019000000C10F8013B13F0070408BF10F8014BE6
:1001A0001D1108BF10F8015B641E05D010F8016B2B
:1001B000641E01F8016BF9D113F0080F1EBF10F88F
:1001C000014BAD1C0C1B09D16D1E58BF01F801CBB2
:1001D000FAD505E014F8016B01F8016B6D1EF9D535
:1001E0009142D6D37047000000230024002500264A
:1001F000103A28BF78C1FBD8520728BF30C148BF8A
:100200000B607047642900F07D80002070471FB5A7
:100210001FBD10B510BD00F014FA1146FFF7F7FF2F
:1002200003F078FD00F032FA03B4FFF7F2FF03BCED
:1002300000F036FA0948804709480047FEE7FEE724
:10024000FEE7FEE7FEE7FEE7FEE7FEE7FEE7FEE786
:1002500004480549054A064B70470000111F000875
:1002600051010008F0B20020F0B80020F0B40020E6
:10027000F0B400200FB41CB5074B06AA7B446946B6
:100280000090059800F093F90020694600F0A2F96B
:100290001CBC5DF814FB0000550300002DE9F04183
:1002A0000E460446002020622046E168884730B3AD
:1002B000252805D0D4E901219047206A401CF2E7A7
:1002C000E168204600278847050018D0A5F14100C5
:1002D000192802D820354FF40067324629462046B7
:1002E0002760FFF78FFF40B1012804D0F61D26F0EC
:1002F00007060836D8E7361DD6E72846DAE7206A2B
:10030000BDE8F0812DE9F04106460024106875290A
:10031000314616A510D0AFF30080002802DA404223
:1003200013A507E031688A0701D512A502E0490745
:1003300004D511A5012401E0AFF3008000210A22B9
:1003400006F1240709E0B0FBF2FCB0FBF2F302FB7C
:100350001C00303078541846491C0028F3D123463D
:100360002A463046BDE8F04100F0C2B80000000067
:100370002D0000002B0000002000000040EA0103D7
:1003800010B59B070FD1042A0DD310C808C9121F3E
:100390009C42F8D020BA19BA884201D9012010BD78
:1003A0004FF0FF3010BD1AB1D30703D0521C07E045
:1003B000002010BD10F8013B11F8014B1B1B07D1A9
:1003C00010F8013B11F8014B1B1B01D1921EF1D11A
:1003D000184610BD10B5431C02E010F8011B71B1A6
:1003E0008107FAD14FF0013202C88C1A8C4314EA0B
:1003F000C211F9D0C01A0A0603D0C01E10BDC01A1F
:1004000010BD0A0401D0801E10BD0902FCD0401EA0
:1004100010BD032A40F2308010F0030C00F015806C
:1004200011F8013BBCF1020F624498BF11F801CBF7
:1004300000F8013B38BF11F8013BA2F1040298BF5C
:1004400000F801CB38BF00F8013B11F0030300F0C6
:10045000C680083AC0F0088051F8043B083A51F8C9
:1004600004CBA0E80810F5E7121D5CBF51F8043B6F
:1004700040F8043BAFF30080D20724BF11F8013BE2
:1004800011F801CB48BF11F8012B24BF00F8013B44
:1004900000F801CB48BF00F8012B70474FF0000275
:1004A00000B5134694469646203922BFA0E80C506A
:1004B000A0E80C50B1F12001BFF4F7AF090728BF45
:1004C000A0E80C5048BF0CC05DF804EB890028BFC1
:1004D00040F8042B08BF704748BF20F8022B11F0EA
:1004E000804F18BF00F8012B704770477047704766
:1004F0002DE9F0470D4699469246044600F124083E
:100500000168880604D5E06921F01001216000E04F
:100510000120A84201DD471B00E00027A1697A19EC
:1005200002EB0900081AA0612078C00602D4204618
:10053000AFF30080002608E0D4E901211AF8060094
:100540009047206A401C761C20624E45F4DB2078E0
:10055000C0060AD52046AFF3008006E0D4E90121A9
:1005600030209047206A401C2062381EA7F1010706
:10057000F4DC07E0D4E9012118F805009047206A6F
:10058000401C2062281EA5F10105F3DC2046AFF3D4
:1005900000802078000602D50220BDE8F087012007
:1005A000FBE7000001694A1C02610878704700B54A
:1005B0008FB0CDE901310021059105497944CDE99C
:1005C000031011466846FFF769FE0FB000BD00003A
:1005D000E5FFFFFF0A6802F8010B0A60704710B5DB
:1005E000203AC0F00B80B1E81850203AA0E818502B
:1005F000B1E81850A0E81850BFF4F5AF5FEA027CEC
:1006000024BFB1E81850A0E8185044BF18C918C05A
:10061000BDE810405FEA827C24BF51F8043B40F8FB
:10062000043B08BF7047D20728BF31F8023B48BFE0
:1006300011F8012B28BF20F8023B48BF00F8012B1E
:100640007047754600F028F8AE46050069465346E7
:1006500020F00700854618B020B5FFF7F9FDBDE88A
:1006600020404FF000064FF000074FF000084FF019
:10067000000B21F00701AC46ACE8C009ACE8C009AA
:10068000ACE8C009ACE8C0098D4670470446AFF33A
:1006900000802046FFF7C8FD0048704790B2002058
:1006A00001491820ABBEFEE726000200704700BFDC
:1006B000FEE7000010B54FF4001000F0E7F8012845
:1006C00004D103490870400500F01CF810BD00007B
:1006D0002600002010B54FF0007000F0D7F8012878
:1006E0000AD10020054908704FF0007000F00AF8A8
:1006F0000021034800F014F810BD00002400002081
:100700008000024000F0805111B10349086001E00F
:1007100002494860704700000404024000000240A3
:1007200021B1026842F00102026004E002684FF663
:10073000FE731A400260704701684FF6FE72114066
:1007400001600021016041608160C1604B498842C5
:1007500008D14A490839496841F00F01474A083A27
:1007600051608AE045491431884208D1434908392B
:10077000496841F0F001414A083A51607DE03F4943
:100780002831884208D13D490839496841F47061EF
:100790003A4A083A516070E038493C31884208D101
:1007A00036490839496841F47041344A083A516081
:1007B00063E032495031884208D1304908394968EC
:1007C00041F470212D4A083A516056E02B496431BA
:1007D000884208D129490839496841F47001274AFB
:1007E000083A516049E025497831884208D12349C7
:1007F0000839496841F07061204A083A51603CE08C
:100800001F49884206D1011F096841F00F01021FEC
:10081000116032E01A491431884208D11849091F81
:10082000096841F0F001164A121F116025E01449D1
:100830002831884208D11249091F096841F47061C2
:100840000F4A121F116018E00D493C31884208D14F
:100850000B49091F096841F47041094A121F1160D0
:100860000BE007495031884207D10549091F096843
:1008700041F47021024A121F1160704708000240C3
:10088000080402400146486880B2704701460020D3
:10089000002201F0805313B1054B1A6801E0054BAB
:1008A0001A6802EA01030BB1012000E00020704742
:1008B00000040240000002401AB103680B430360C9
:1008C00002E003688B430360704710B500220268A2
:1008D00047F6F0739A430C6A8B6823430C692343F1
:1008E0004C6923438C692343CC6923434C6A2343DB
:1008F0008C6A23431A430260CB6843600B688360B1
:100900004B68C36010BD704710B54FF4E04102481A
:1009100000F09EFD10BD0000001401400149486137
:10092000704700000090024029B1064AD269024394
:10093000044BDA6104E0034AD2698243014BDA6175
:10094000704700000090024030B10749896941F0CA
:100950000201054A916105E00349896921F002011C
:10096000014A9161704700000090024030B50C468A
:1009700013460021104D286000BF18E000EB011263
:100980004FF00045156044F2F0555560C1EB41153C
:1009900005EB811504EB051595605D1E8D4204D9AC
:1009A00000EB01151035D56000E0D060491C99427C
:1009B000E4D3024DE86030BD1800002000900240F2
:1009C00021B1426822F00042426003E0426842F0F6
:1009D000004242607047000030B10749896941F424
:1009E0000051054A916105E00349896921F40051EC
:1009F000014A9161704700000090024030B50C46FA
:100A0000134600210F4D286000BF15E000EB0112D6
:100A10004FF480151560C1EB411505EB811504EB12
:100A2000051595605D1E8D4204D900EB011510354A
:100A3000D56000E0D060491C9942E7D3024D28619F
:100A400030BD0000140000200090024002680A43FC
:100A50000260704710B50121880300F0CBFF002130
:100A60004FF4804000F0C6FF10BD01B581B00020FA
:100A700000900198009002E00098401E00900098BD
:100A80000028F9D10CBD00000348806940F48010B3
:100A900001498861704700000090024001480068E9
:100AA000806870471400002001460868C0F30D40BC
:100AB0007047000000B500220F480068006800F091
:100AC0000040B0B90C480068008800F4004080B9CC
:100AD00009480068008800F4807050B1064800683A
:100AE000008800F4007020B103480068FFF7DCFFC5
:100AF0000246104600BD00001800002000200449F6
:100B0000096801F0010109B1012000E000207047EF
:100B10000090024010B501E000F0E8FEFFF7CAFFC8
:100B20000028F9D14020FFF7F9FE4FF48030FFF79D
:100B3000F5FE10BD2DE9F04188B004460F464FF098
:100B400000080025002007908A4E01908A48056918
:100B500025F01C0502A800F07DFF039E8748864211
:100B600005D38748864202D245F0080509E084484B
:100B7000864205D37F48864202D245F00C0500E04C
:100B800000BF7D4805614FF400420021384600F067
:100B900065FA18B9002008B0BDE8F0817948FFF780
:100BA00064FF206800284ED000BF0198401C0190CF
:100BB0000121384600F02EF900F0040018B97249FE
:100BC00001988842F1D370490198884201D10020F0
:100BD000E1E7002001904FF480520021384600F0F8
:100BE0003DFA08B90020D6E700BF0198401C0190EB
:100BF0000121384600F00EF900F0200018B96249D2
:100C000001988842F1D360490198884201D10020BF
:100C1000C1E7002001901021384600F0FBF8804623
:100C200008F0040018B14FF40060206201E00020D9
:100C3000206208F0020010B10020606116E04FF45D
:100C40008040606112E0206AC0F3CF006169C1F3A7
:100C50004F0140EA01020021384600F0FFF908B9CF
:100C6000002098E76FF07F40FFF7FFFE42480568DD
:100C700046480540D4E901010843E1680843216979
:100C8000084361690843A1690843E1690843216A8F
:100C90000843616A0843A16A0843E16A0843216B7B
:100CA0000843616B0843054333480560D4E90E01EE
:100CB0000843216C0843616C0843A16C0843E16C54
:100CC0000843216D0843616D08432B494860A06DBE
:100CD0008860E06DC860084685694FF64170054040
:100CE000B4F86010606E40EA0140A16E0843E16E06
:100CF0000843216F0843616F084305431E4885611F
:100D0000D4E91E0108431C49C8612148856921486E
:100D10000540D4E920010843D4F888100843D4F8EA
:100D20008C100843D4F890100843D4F8941008436A
:100D3000D4F898100843D4F89C100843D4F8A010B5
:100D40000843054312488561D4E929010843D4F8D2
:100D5000AC100843D4F8B0100843D4F8B41040EAFB
:100D60008100D4F8B810084340F400000849086036
:100D7000012010E70087930300800240002D31011D
:100D8000C00E1602FFFF0F00FFFF04000F8120FFBF
:100D900000900240233FDEF810B50B794C7943EA0E
:100DA0000422094B03441A64CB781B068C7843EA6F
:100DB00004434C7843EA04230C7843EA0402024BD0
:100DC00003445A6410BD00000080024030B107495E
:100DD000096841F00401054A116005E0034909680A
:100DE00021F00401014A11607047000000800240B8
:100DF00030B10749096841F00801054A116005E072
:100E00000349096821F00801014A11607047000098
:100E10000080024018B502460B46002100200090D9
:100E20001548016901F01C014FF4784000EAC22026
:100E300001434FF4F86000EA8310014321F00201FE
:100E400041F001010C48016100BF0098401C009076
:100E50000948016901F0010018B1084C0098A0424E
:100E6000F3D3064C0098A04201D1002018BD0248DF
:100E7000406980B2FAE7000000800240FFFF0400F2
:100E80001EB500210022009201920292214A1268AE
:100E9000126802F0004282B1002200921E4A52699A
:100EA00002F0800222B180221B4B5A6100229A601C
:100EB0009DE81C0080E81C001EBD164A12681288BE
:100EC00002F40042B2B9134A1268128802F4807226
:100ED00082B1104A1268128802F4007252B10D4AAF
:100EE00012681268C2F30D42111F0A4A1268926812
:100EF000019200E000210091064A12680292054A20
:100F00001268D268034B1A609DE81C0080E81C0040
:100F100000BFD1E71800002000900240034800689D
:100F200040F0010001490860704700000090024055
:100F300000B50120FFF75CFFFFF7A6FD0120FFF7DA
:100F400045FF0120FFF748FD0120FFF7FDFC00BD34
:100F50000021016041608160C16001614161816186
:100F6000C161016241628162C16201634163816367
:100F7000C163402101642021416400218164C16476
:100F8000016541658165C165016680214166002179
:100F90008166C166016741678167C1674FF0806103
:100FA000C0F880104910C0F884104910C0F88810AB
:100FB000C910C0F88C100021C0F89010C0F894102F
:100FC000C0F89810C0F89C10C0F8A0104FF0007145
:100FD000C0F8A4100021C0F8A8104FF40031C0F8E8
:100FE000AC104912C0F8B0100021C0F8B410C0F81D
:100FF000B8107047014617480068006800F00040CC
:1010000008B100207047C1F30C00124A126850600A
:1010100010480068006840F040500E4A12681060A6
:101020000C480068006840F000400A4A12681060EE
:101030000948406900F0040020B10420064A5061CC
:101040000020506003480068C068024A1060012018
:10105000D8E70000140000200090024038B5034695
:101060000C460021002000901448016901F01C0189
:101070004FF4784000EAC32001434FF4F86000EADF
:101080008410014341F0020141F001010B4842612B
:10109000016100BF0098401C00900848016901F000
:1010A000010018B1064D0098A842F3D3044D0098F2
:1010B000A84201D1002038BD0120FCE70080024099
:1010C000FFFF040010B54FF4E041024800F0BEF904
:1010D00010BD00000014014000B5AFB001214FF475
:1010E000E03000F077FC012000F0D6F84FF400402B
:1010F00000F0A2FD012000F099FD00BF3D2000F0AE
:1011000071FD0028FAD00B2000F08AFDFFF7A2FC49
:10111000FFF704FF00BFFFF7F1FC0128FBD0684692
:10112000FFF716FF01200090002007904FF4007099
:101130000A9000200B900E9011901390149015902F
:101140004FF480600990002020904FF000702190B3
:101150000011239000202590269004202890C0059F
:10116000299040122A9080012B9040122C90400030
:101170002E9001216846FFF7DDFC01210248FFF7B0
:10118000D3FB2FB000BD00004000010008B50121D5
:10119000084600F04FFC0121042000F04BFC012127
:1011A000082000F047FC0121102000F043FC012141
:1011B000202000F03FFC0121402000F03BFC0420F7
:1011C000ADF8000003208DF8020018208DF8030010
:1011D00069462D4800F066F80220ADF800000320B3
:1011E0008DF8020018208DF803006946274800F0AA
:1011F00059F84FF46050ADF8000003208DF802005C
:1012000018208DF803006946214800F04BF80121B1
:101210004FF0201000F0D2F80320ADF800008DF858
:10122000020004208DF803006946174800F03AF8E0
:101230004FF48060ADF8000003208DF80200042018
:101240008DF803006946124800F02CF84FF4E06076
:10125000ADF8000003208DF8020004208DF8030093
:1012600069460C4800F01EF84FF48070ADF800009D
:1012700003208DF8020018208DF80300694602480B
:1012800000F010F808BD0000000801400010014007
:10129000000C014000140140014908607047000043
:1012A000DC0020422DE9F041024600250026002006
:1012B00000230024002791F803C00CF00F0591F8DB
:1012C00003C00CF0100CBCF1000F03D091F802C069
:1012D0004CEA050591F800C0BCF1000F31D014684C
:1012E00000202BE04FF0010C0CFA00F3B1F800C025
:1012F0000CEA03069E4220D183004FF00F0C0CFA3B
:1013000003F7BC4305FA03FC4CEA040491F803C05C
:10131000BCF1280F06D14FF0010C0CFA00FCC2F80A
:1013200014C00AE091F803C0BCF1480F05D14FF09A
:10133000010C0CFA00FCC2F810C0401C0828D1D3E4
:101340001460B1F800C0BCF1FF0F34DD5468002018
:101350002EE000F1080C4FF0010808FA0CF3B1F888
:1013600000C00CEA03069E4221D183004FF00F0C0F
:101370000CFA03F7BC4305FA03FC4CEA040491F8A9
:1013800003C0BCF1280F05D100F1080C08FA0CF8D5
:10139000C2F8148091F803C0BCF1480F07D100F1E6
:1013A000080C4FF0010808FA0CF8C2F81080401C35
:1013B0000828CED35460BDE8F0810000F0B50A469D
:1013C000002300240021002500F00046B6F1004F64
:1013D00002D11D4EF16901E01B4E7168C0F3034557
:1013E00083B200F44016B6F5401F08D121F07061B9
:1013F000154E766826F07066134F7E6012E000F49A
:101400008016B6F5801F06D1032606FA05F4A1431F
:1014100041F0706106E0460D360103FA06F6B1436D
:1014200041F0706122B1460D360103FA06F63143F0
:1014300000F00046B6F1004F02D1034EF16101E029
:10144000014E7160F0BD0000000001404161704735
:101450000161704700BFFEE710B500F0BFF800F073
:1014600061F800F003F800F089F810BD00B58BB00A
:101470000121084600F0AEFA264800902648019067
:1014800000200290322003900020049080200590DC
:1014900000200690079008904FF40050099000201B
:1014A0000A9069461D48FFF710FA01211B48FFF713
:1014B00037F9012202211948FFF7FEF917481430C5
:1014C000FFF73AF913480090154801901020029058
:1014D0006420039000200490802005900020069056
:1014E000079008904FF40050099000200A90694638
:1014F0000A481430FFF7E9F90122022107481430A5
:10150000FFF7DAF9012105481430FFF709F90BB0AC
:1015100000BD000004440040980100206C0002401F
:101520003401002008B526208DF8000003208DF836
:1015300001008DF8020001208DF80300684600F0DC
:10154000FBF911208DF8000003208DF801008DF8C3
:10155000020001208DF80300684600F0EDF910202C
:101560008DF8000003208DF801008DF802000120A5
:101570008DF80300684600F0DFF908BD1FB5684626
:1015800000F076FE4FF4E13000900020ADF804004A
:10159000ADF80600ADF808000C20ADF80A000020F8
:1015A000ADF80C0069460C4800F0F6FD012240F24F
:1015B0002441094800F0CBFD01224021064800F0FB
:1015C00093FD01228021044800F08EFD0121024894
:1015D00000F07EFD1FBD00000044004008B5012161
:1015E000202000F027FA0121084600F023FA01210B
:1015F000480400F00FFA01210820FFF7DFFE202049
:10160000ADF8000018208DF8030003208DF80200CB
:1016100069460748FFF746FE4020ADF80000042069
:101620008DF8030069460248FFF73CFE08BD000044
:101630000014014010B5FFF7A9FD00F062F9FFF7B3
:101640004BFD10BD30B5ADF51D7D002402F0CCFB87
:1016500002F046FD02F015FB5548C07801065448DB
:10166000807841EA00415248407841EA00205049E0
:101670000978084306904F48C07801064D488078A5
:1016800041EA00414B48407841EA00204949097845
:10169000084305904848C07801064748807841EAE9
:1016A00000414548407841EA002043490978084311
:1016B00004903F48C0783E498978CDE900103C4805
:1016C000437802783DA184A8FEF7D4FD05E084A804
:1016D000005D39A90855601CC4B284A8005D0028CB
:1016E000F5D13448C07833498978CDE900103148C4
:1016F000437802783AA16BA8FEF7BCFD002405E010
:101700006BA8005D20A90855601CC4B26BA8005DE1
:101710000028F5D12848C07827498978CDE90010FC
:1017200025484378027837A152A8FEF7A3FD00248C
:1017300005E052A8005D07A90855601CC4B252A874
:10174000005D0028F5D184A8FEF744FEC5B22A4604
:1017500039A9002000F024FB6BA8FEF73BFEC5B2C0
:101760002A4620A9002000F01BFB52A8FEF732FEFB
:10177000C5B22A4607A9002000F012FB2A49002022
:10178000FFF70AFB29482A49002204ABCDE90021D2
:10179000029005AA06A9274802F0F2FC254802F0AB
:1017A0003FFD244802F08AFD0DF51D7D30BD00008F
:1017B000960000209A0000209E000020BFAAB7A239
:1017C000B0E5BEB2CCAC4950B5D8D6B7A3BA20204C
:1017D00025642E25642E25642E25640D0A00000044
:1017E000BFAAB7A2B0E5D7D3CDF8D1DAC2EBB5D84E
:1017F000D6B7A3BA25642E25642E25642E25640D44
:101800000A000000BFAAB7A2B0E5CDF8B9D8B5D894
:10181000D6B7A3BA2020202025642E25642E256467
:101820002E25640D0A0000002C000020A52C0008C5
:10183000612D0008CC01002010B500F003F800F085
:1018400023F810BD0EB50121022000F0E3F863205B
:10185000ADF8040041F61F40ADF800000020ADF8DF
:101860000600ADF802006946064800F0C7FB0122F9
:101870001146044800F0B8FB0121024800F097FB34
:101880000EBD00000004004008B51D208DF80000CA
:1018900001208DF8010003208DF8020001208DF851
:1018A0000300684600F048F808BD10B5FFF7C4FF14
:1018B00010BD10B5FFF7D0FD10BD000008B5012127
:1018C000202000F0B7F84FF4E040ADF8000003200E
:1018D0008DF8020010208DF8030069460248FFF7DA
:1018E000E1FCFFF711F808BD0014014010B50248F3
:1018F00001F04AFA10BD0000CC01002000BFFEE755
:10190000704708B500214FF0006000F057F84FF421
:10191000A06000F049F83D208DF8000002208DF80D
:10192000010000208DF8020001208DF803006846B8
:1019300000F002F808BD000070B5002100230F225E
:10194000C47804B3154C246804F4E064C4F5E0647E
:10195000210AC1F10403CA40447804FA03F18478EF
:101960001440214309010E4C0678A155047804F077
:101970001F050124AC4005786D11AD0005F1E0258F
:10198000C5F8004109E0047804F01F050124AC40CB
:10199000044D0678761145F8264070BD0CED00E048
:1019A00000E400E080E100E002490143024A1160E6
:1019B000704700000000FA050CED00E0024A0A4002
:1019C0000243024B1A60704780FFFF1F08ED00E0E2
:1019D0007047000029B1064A52690243044B5A611C
:1019E00004E0034A52698243014B5A617047000088
:1019F0000010024029B1064A926A0243044B9A62DF
:101A000004E0034A926A8243014B9A6270470000E5
:101A10000010024029B1064AD2690243044BDA6140
:101A200004E0034AD2698243014BDA617047000047
:101A30000010024029B1064A92690243044B9A61A0
:101A400004E0034A92698243014B9A6170470000A7
:101A5000001002402DE9F041002100220025002362
:101A60000026002400278C46DFF86081D8F8048027
:101A700008F00C0121B1042907D0082959D109E047
:101A8000DFF84C81C0F8008058E0DFF84881C0F8EA
:101A9000008053E0DFF83481D8F8048008F4701235
:101AA000DFF82881D8F8048008F48035920C0D2ADC
:101AB00001D0921C00E0062235B9DFF81C8102FB40
:101AC00008F8C0F8008033E0DFF80081D8F82C80F7
:101AD00008F48036DFF8F480D8F82C8008F00F087E
:101AE00008F1010446B9DFF8EC80B8FBF4F808FB14
:101AF00002F8C0F800801BE0DFF8D080D8F82C8016
:101B0000C8F3031808F10107DFF8C080D8F82C806B
:101B1000C8F3032808F1020CDFF8B880B8FBF7F827
:101B200008FB0CF8B8FBF4F808FB02F8C0F80080DA
:101B300004E0DFF89C80C0F8008000BF00BFDFF841
:101B40008C80D8F8048008F0F0010909DFF88C8057
:101B500018F80130D0F8008028FA03F8C0F80480A3
:101B6000DFF86880D8F8048008F4E061090ADFF83B
:101B70006C8018F80130D0F8048028FA03F8C0F817
:101B80000880DFF84880D8F8048008F46051C90A5A
:101B9000DFF8488018F80130D0F8048028FA03F8FC
:101BA000C0F80C80DFF82480D8F8048008F44041A5
:101BB000890BDFF82C8018F80130D0F80C80B8FBC6
:101BC000F3F8C0F81080BDE8F0810000001002407A
:101BD00000127A0040787D0100093D0000000020DD
:101BE0001000002010B501460022002300204A11F9
:101BF000012A02D1094C236806E0022A02D1074CCF
:101C0000236A01E0054C636A01F01F02012494403D
:101C10001C400CB1012000E0002010BD001002406B
:101C20000149C8717047000000100240014908676F
:101C3000704700000000424201460020034AD06A7B
:101C400020F470400843D06270470000001002404A
:101C500070B5064600251348007801281FD11248A8
:101C6000FEF710FEC0F13200C5B2002D17DD0021D5
:101C70000D48FEF755FD002404E00C48005D30558A
:101C8000601CC4B2AC42F8DB002006490870322068
:101C900005496C39086701210348FEF741FD2846D4
:101CA00070BD0000260000206C000240980100205A
:101CB00070B504460D46002624B92846FFF7C8FF34
:101CC000064600BF00BF304670BD70472DE9F041A9
:101CD00080460D4600272E480078012836D1002185
:101CE0002C48FEF71DFD2B48FEF7CCFDC6B22A4856
:101CF0000078801BC7B2002405E0E0192749085C82
:101D00000855601CC4B2B442F7DBA819642802DD90
:101D1000C6F16400C5B2002406E018F80400A11959
:101D20001E4A5054601CC4B2AC42F6DB2F46A819C0
:101D300019490870A8191749091D0860012014499C
:101D4000087001211348FEF7EBFC1DE0002111484B
:101D5000FEF7E6FC642D00DD6425002405E018F89C
:101D600004000E490855601CC4B2AC42F7DB2F4694
:101D7000094805700748001D0560012004490870E6
:101D800001210448FEF7CCFC3846BDE8F081000094
:101D900024000020800002402500002034010020A3
:101DA0002DE9F04104460D46164600272CB9314670
:101DB0002846FFF78BFF074600BF00BF3846BDE847
:101DC000F08110B500F002F810BD00000CB5002045
:101DD000019000903F48006840F480303D49086021
:101DE00000BF3C48006800F4003000900198401C9F
:101DF0000190009818B90198B0F5A06FF1D135485D
:101E0000006800F4003010B10120009001E00020D3
:101E10000090009801285CD12F48006840F0100025
:101E20002D4908600846006820F003000860084655
:101E3000006840F002000860264840682549486074
:101E40000846406848600846406840F48060486042
:101E50000846C06A214908401E49C8620846C06A4F
:101E60001F4908431B49C8620846006840F080606B
:101E7000086000BF1748006800F000600028F9D033
:101E80001448406820F47C101249486008464068B5
:101E900040F4E81048600846006840F08070086030
:101EA00000BF0C48006800F000700028F9D0094815
:101EB000406820F00300074948600846406840F049
:101EC0000200486000BF0348406800F00C0008288A
:101ED000F9D10CBD001002400020024000F0FEFFCE
:101EE00044060100042808D14FF0E021096941F0BF
:101EF00004014FF0E022116107E04FF0E021096991
:101F000021F004014FF0E02211617047704700009A
:101F100010B51648006840F00100144908600846F2
:101F20004068134908401149486008460068114953
:101F300008400E4908600846006820F480200860C8
:101F40000846406820F4FE0048600846006820F01B
:101F5000A05008604FF47F0088600020C862FFF73F
:101F600030FF4FF000600449086010BD00100240CF
:101F70000000FFF0FFFFF6FE08ED00E010B50121C4
:101F8000084800F020F858B100F018FF04460A3461
:101F9000204602F06BFD0121024800F005F800BF69
:101FA00010BD000000040040CA430282704721B106
:101FB000028842F00102028004E002884FF6FE73BC
:101FC0001A400280704730B50246002000230024EA
:101FD000158A05EA0103958905EA010413B10CB1DC
:101FE000012000E0002030BD1AB183890B438381BA
:101FF00002E083898B4383817047000000220288BE
:102000001D4B98420ED01D4B98420BD0B0F1804F23
:1020100008D01B4B984205D01A4B984202D01A4B5D
:10202000984204D14FF68F731A404B881A43174BCE
:10203000984207D0164B984204D04FF6FF431A40FF
:10204000CB881A4302808B8883850B8803850A4BD3
:1020500098420BD0094B984208D00E4B984205D0BD
:102060000D4B984202D00D4B984201D10B7A03865A
:102070000123838270470000002C0140003401409E
:102080000004004000080040000C00400010004028
:10209000001400400040014000440140004801405D
:1020A00010B5002440F22441074800F026F848B15A
:1020B00005480088C4B20448001D0088C4B201204D
:1020C0000249087010BD00000044004026000020B6
:1020D00021B1828942F40052828104E082894DF666
:1020E000FF731A40828170471AB1838A0B4383823F
:1020F00002E0838A8B438382704770B502460024D6
:1021000000230025002040F66A16B14200D100BF2E
:10211000C1F3421501F01F03012606FA03F3012D56
:1021200002D19689334006E0022D02D1168A33404F
:1021300001E0968A33400C12012606FA04F4168850
:10214000344013B10CB1012000E0002070BDF0B5A7
:102150000346002400260025002040F66A17B942F5
:1021600000D100BF1846C1F3421401F01F06012739
:1021700007FA06F5012C01D10C3004E0022C01D144
:10218000103000E014301AB107682F43076002E0F6
:102190000768AF430760F0BD2DE9F04786B00546FC
:1021A0000E460024A24600BFA1460027B08900B118
:1021B00000BF2F462C8A4CF6FF700440F088044381
:1021C0002C82AC894EF6F3100440B0883189084364
:1021D000718908430443AC81AC8A4FF6FF40044048
:1021E000B0890443AC8201A8FFF734FC1F48874242
:1021F00002D1DDF810A001E0DDF80CA0A88900F400
:10220000004040B10AEBCA0000EB0A1031684900F7
:10221000B0FBF1F807E00AEBCA0000EB0A103168E6
:102220008900B0FBF1F86420B8FBF0F0040120094C
:10223000642101FB1089A88900F4004040B13220DC
:1022400000EBC900B0FBF1F000F00700044308E028
:10225000322000EB09106421B0FBF1F000F00F0018
:1022600004432C8106B0BDE8F0870000003801402F
:102270004FF41651016000218180C18001810C2141
:10228000418100218181704700BFFEE710B50446FF
:1022900000F060FC0022034941F2883002F0F0FBBC
:1022A00010BD00008D22000810B56FF00400FFF78C
:1022B00019FE10BD10B50146B1F5E16F24D201EB56
:1022C000C1034FF47A7463434FF0E0246361002349
:1022D000A36123461B6943F00103236100BF4FF054
:1022E000E023186900F001031BB100F48033002BD8
:1022F000F5D04FF0E0231B6923F001034FF0E024F9
:1023000023610023A36152E0002220E0284B4FF01C
:10231000E02463610023A36123461B6943F00103AA
:10232000236100BF4FF0E023186900F001031BB1E7
:1023300000F48033002BF5D04FF0E0231B6923F02D
:1023400001034FF0E02423610023A361521C4FF4EA
:10235000E163B1FBF3F39342D8D84FF4E163B1FBEF
:10236000F3F403FB141303EBC3034FF47A746343D6
:102370004FF0E02463610023A36123461B6943F00F
:102380000103236100BF4FF0E023186900F001034F
:102390001BB100F48033002BF5D04FF0E0231B6914
:1023A00023F001034FF0E02423610023A36110BD5B
:1023B0004031F7002DE9FC4705468846164600BF28
:1023C0001DB900BF00BFBDE8FC8700BF70892A2887
:1023D00003DA304602F0B6F9F5E7776807F10E0444
:1023E0002088B0F5807F08D12079062805D1607952
:1023F000042802D16088082803D0304602F0A2F9F0
:10240000E1E7D4F80E000190A0690090281D08B102
:10241000686810B94FF0000907E0009869688842C1
:1024200001D1012000E000208146B9F1000F01D068
:10243000012000E00220034604F1080201A9284619
:1024400000F0CEFBE088B0F5807F03D0B0F5007FD0
:1024500033D131E0B9F1000F2CD0022001F00BFC98
:10246000E080D4F80E00A0616868C4F80E0000BFD8
:1024700095F82600062801D000BF00BF00BFA06865
:10248000C4F81200A089E082A0683860A089B880F2
:10249000D8F80000A060B8F80400A081D8F80000C7
:1024A000C7F80600B8F80400788131462846AA69C2
:1024B000904700E000BF01E000E000BF00BF3046F1
:1024C00002F040F900BF7EE72DE9FC5F05460F46AC
:1024D0004FF00A08C1460A260024A34600200190B6
:1024E000B246009000BF62E004EB84005D4A02EB5C
:1024F0008000817C0A2E02D109B966B255E000291C
:1025000053D000BF012903D0022901DA00BF00BF68
:1025100000BF5DB104EB8402524B03EB82022868DA
:102520005268904202D160B2BDE8FC9F012928D1D7
:1025300004EB84004B4A52F8200088B104EB84007D
:1025400002EB8000C27C009882422EDB4FFA84FAB4
:1025500004EB8400434A02EB8000C07C009024E03E
:1025600004EB84003F4A02EB8000C07C58451CDB32
:102570004FFA84F804EB840002EB800090F813B06B
:1025800013E0022911DB04EB8400364A02EB8000E1
:10259000C27C0198824208DB4FFA84F904EB840084
:1025A000304A02EB8000C07C0190601CC4B20A2C4F
:1025B0009ADB07F0020020B90A2E05D107F00100CE
:1025C00010B94FF0FF30AFE70A2E01DAF4B226E07F
:1025D000B9F10A0F0BDA09F0FF0400BF04EB840025
:1025E000204951F8200008B100BF00BF0EE0B8F14B
:1025F0000A0F02DA08F0FF0408E0BAF10A0F02DA63
:102600000AF0FF0402E04FF0FF308DE700BF0A2C14
:1026100001DB00BF00BF00BF204600F025F800BF6F
:102620000A2C01DB00BF00BF00BF00BF04EB840029
:102630000C4901EB8000807C08B100BF00BF00BFE7
:1026400035B104EB8401074A02EB81012868486038
:10265000002004EB8401034A02EB8101C87460B2DC
:1026600062E700000002002010B5044604EB84007D
:102670000C4951F8200060B104EB8401094A52F87A
:10268000210002F05FF8002004EB8401054A42F8C3
:102690002100002004EB8401024A02EB81018874CE
:1026A00010BD0000000200202DE9FC4704460F4643
:1026B0001546A94600BF0CB900BF00BF00BF00BF50
:1026C0000FB900BF00BF00BF00BF0DB900BF00BF02
:1026D00000BF0E21384602F092F818B16FF00100E9
:1026E000BDE8FC872146286800F0B9FC10B1DFF88E
:1026F000048177E0287800F0F000E02815D101206F
:102700008DF8000000208DF801005E208DF8020099
:10271000687800F07F008DF80300A8788DF8040039
:10272000E8788DF80500E8465BE02868A168084075
:10273000D4E901121140884210D0288880B24FF6A7
:10274000A96188420AD004F10C0020B1E06810B100
:1027500004F10C0902E06FF00300C1E7264800789D
:1027600000EB8000254901EB8000807C022812DB11
:102770002149097801EB8101204A02EB8101D9F856
:1027800000004968884206D11B4802783946204635
:1027900000F036F8A4E700261BE006EB8600174998
:1027A00001EB8000807C022811DB06EB8601134AD6
:1027B00002EB8101D9F800004968884207D10E492F
:1027C0000E70F2B23946204600F01AF888E7701C05
:1027D00046B20A2EE1DB3A464946204600F050F860
:1027E0007EE700BF434604F127023946204600F049
:1027F0008FF975E750740008A20000200002002045
:1028000070B505460E46144600BF04EB84001B4914
:1028100001EB8000807C022801DA00BF00BF00BF0E
:1028200004EB8400154901EB8000807C022817D15D
:1028300004EB840001EB8000C07CE42810DB04EB97
:1028400084000A4602EB8000011D284600F04AF988
:1028500030B9032004EB8401084A02EB810188743B
:1028600004EB8400054901EB800000F10C0305F145
:1028700027023146284600F04BF970BD00020020C7
:102880002DE9F05F80460F46164608F127094FF004
:10289000FF3A4146386800F0E2FB38B9387800F07A
:1028A000F000E02802D00FB1386818B96FF00D00C1
:1028B000BDE8F09F01213846FFF706FE0446002CD4
:1028C00001DA2046F4E704EB8400504901EB800074
:1028D000807C30B9012004EB84014C4A02EB810179
:1028E000887400BF04EB8400484901EB8000807CC1
:1028F000012808D004EB840001EB8000807C0228D2
:1029000001DA00BF00BF00BF04EB84003F4901EBC8
:102910008000807C012800D03EB93946404600F056
:10292000E1F882460EB95046C2E700BF0EB900BFBB
:1029300000BF00BF04EB8400344901EB8000807CC1
:1029400002280FDB32490C7004EB84002F4901EBA5
:10295000800000F10C034A463146404600F0D8F8AA
:10296000824650E004EB8400284901EB8000807C23
:10297000012848D14FF0000B354610E000BF6889B0
:102980002989884203D1286808B100BF00BF00BF71
:10299000287B012802D04FF0010B02E02D68002DAA
:1029A000ECD100BFBBF1000F10D029890022032019
:1029B00001F09FFC05466DB13146284601F003FE4B
:1029C00040B1284601F0BEFE002503E0354628460A
:1029D00001F0B3FFA5B104EB84000C4951F82000CD
:1029E00030B104EB8401094A52F8210001F0AAFE3B
:1029F00004EB8400054941F820504FF0000A01E043
:102A00004FF0FF3A00BF504652E70000000200209E
:102A1000A20000202DE9F84F0746884691469A46C5
:102A2000DDF828B00020009000BF0FB900BF00BF44
:102A300000BF00222A21032001F05BFC05461DB9DE
:102A40004FF0FF30BDE8F88F00BF68892A2801DA0F
:102A500000BF00BF00BF6E6806F10E040D9801F0C4
:102A60000AF9E08000BF97F82600062801D000BFD1
:102A700000BF00BFDAF80000A060BAF80400A0812F
:102A80000B980168C4F812108088E082D9F8000021
:102A90003060B9F80400B080D8F80000C6F806002D
:102AA000B8F804007081DBF80000C4F80E000C9840
:102AB0000068A0614FF480702080082060800620AC
:102AC0002071042060714FF4C160B08129463846FE
:102AD000BA6990470090284601F034FE002500981E
:102AE000B0E700007FB504460D460121064A201DCF
:102AF00004F127038DE825000391044A1946204676
:102B0000FFF788FF04B070BD5674000850740008C9
:102B10002DE9F04104460E4617469846756800BFF9
:102B200094F82600062801D000BF00BF00BFD8F8E7
:102B300000002860B8F80400A8803868C5F80600CE
:102B4000B88868810820A88131462046A26990474C
:102B5000BDE8F08170B500243DE004EB84001F491E
:102B600001EB8000857C25B304EB840001EB800041
:102B7000C07C401C04EB8401184A02EB8101C8743C
:102B800004EB8400114601EB8000C07CF0280DDAD4
:102B900004EB840001EB8000807C01280AD104EB67
:102BA000840001EB8000C07C022803DB2046FFF795
:102BB0005BFD0EE004EB8400084901EB8000807CA3
:102BC000032806D1022004EB8401044A02EB8101B0
:102BD0008874601CC4B20A2CBFDB70BD00020020E8
:102BE0002DE9F04706460D461746984600BF96F871
:102BF0002600062801D000BF00BF00BF5DB12868D5
:102C000048B13146286800F02AFA20B9287800F047
:102C1000F000E02803D16FF00D00BDE8F0874146D9
:102C20002846FFF751FC0446002C01DA2046F4E761
:102C3000022004EB84011A4A02EB8101887404EB40
:102C40008400114601EB8000866004EB840001EBF8
:102C500080003968C160B9880182002004EB8401DA
:102C600002EB8101C87404EB8400114651F8200086
:102C700098B104EB840051F82090002004EB84010B
:102C800042F821003B4606F1270249463046FFF74D
:102C90003FFF484601F056FD00BF0020BDE70000A1
:102CA000000200202DE9F04104460E464FF00E08C8
:102CB00060890E2800DC4BE06568AF89287800F059
:102CC0000100B0B12878012809D1687888B9A878BE
:102CD0005E280ED1607B40F01000607309E0062290
:102CE0001E492846FDF74AFB18B9607B40F00800F2
:102CF0006073082F03D0B7F5C16F24D116E096F8A2
:102D00002D0000F0200000B922E0C8F1000001B25F
:102D1000204601F074FD20B100BF00BF00BF00BF1E
:102D200016E03146204600F0AFFA0DE096F82D008F
:102D300000F0200000B90BE0224606F127013046E2
:102D4000FFF738FB00E003E000BF0020BDE8F081A2
:102D5000204601F0F7FC0020F8E70000507400085E
:102D600010B5044600BF0CB900BF00BF00BF044847
:102D700060610448A061204600F0CCFE002010BD38
:102D8000A9260008293C000870B50446204600F03A
:102D900011FF064616B94FF0FF3070BD2146304690
:102DA0002269904705461DB1304601F0CBFC002654
:102DB0002846F2E7004870473200002001480068CA
:102DC0007047000028000020004870472C000020B9
:102DD00070B505460C4622460321284600F0C4F88B
:102DE00070BD00002DE9FE4F0446894666683078C4
:102DF0000007870E7942204601F001FD10B92089B5
:102E0000042800D2A2E0606890F800A0BAF1000F98
:102E100003D0BAF1080F7DD100E092E001255048BF
:102E2000007800F0F000E02800D100254C49086847
:102E3000494600F014F900B1002525B9204601F0FB
:102E400081FCBDE8FE8F2089082800D27EE0204664
:102E500000F0DAF818B1204601F074FCF1E7222105
:102E6000204601F0CCFC80B33946204601F0C7FC77
:102E700020B100BF00BF00BF00BF6BE0218900226E
:102E8000022001F036FA054605B963E000BF698902
:102E900007F10800814201D200BF00BF00BF2146F8
:102EA000284601F090FB20B100BF00BF00BF00BF6B
:102EB00050E06E68784201B2284601F0A0FC28B1CB
:102EC00000BF00BF00BF00BF44E004E0204601F0A7
:102ED00039FC2C460AE06FF02101204601F08FFCFE
:102EE00020B100BF00BF00BF00BF33E0D4F80480B2
:102EF0001B480068F0601B4800683061002088F8BB
:102F00000000A8F80200FF203072002070813946CE
:102F1000204600E014E001F072FC18B100BF00BFD1
:102F200000BF0CE001200021FF230A46CDE9010982
:102F300000910B49204600F08FFA054600BF00E0E3
:102F400000BF00BF204601F0FDFB7AE7204601F0FC
:102F5000F9FB76E7204601F0F5FB00BF71E70000C2
:102F6000B0000020AC0000202DE9FE4306460F46CD
:102F7000904600222421012001F0BBF905460DB93D
:102F8000BDE8FE8300BF6889242801D200BF00BFCE
:102F900000BFD6F804906C68277084F80180002088
:102FA000A080E08071686A6802F108001C22FDF7C9
:102FB00030FA002060806989204600F01BF86080AC
:102FC000D9F80C00029001200021FF2302AACDE9CC
:102FD0000010284600F01EFA284601F0B3FB00BF9F
:102FE000CEE770B505460C4622460B212846FFF772
:102FF000BBFF70BD70B504460D462946204600F063
:103000005AFEC04380B270BD2DE9F041064600244F
:103010000027354617E06989686800F04CFE0444D3
:10302000A0B200EB1444688900EBD0714910A0EB0A
:10303000410139B1C7F10100C7B2E0B2C4F30721C1
:1030400041EA00242D68002DE5D127B1E0B2C4F398
:10305000072141EA0024E04380B2BDE8F08118B5C1
:1030600002460092D04300B10AB9012018BD91F880
:103070002D0000F0020008B90020F7E748689042F0
:1030800001D10020F2E700988B681840D1E90134A3
:103090002340984208D1886822EA00008C68E34304
:1030A000984201D10120E1E70020DFE72DE9F74F49
:1030B0008CB004468946B9F8240008901420049086
:1030C0004FF0000860680B900B9EF08800F0EDFD5B
:1030D00003900398C0F30C000790039800F400508D
:1030E00006902089143880B209900899A1F1140043
:1030F000C11700EB5171C1F3CF010A91A9E0089803
:1031000014380999884201DB012000E00020059075
:103110000798C0F30C00069908430390059818B966
:10312000039840F400500390059808B1099801E015
:103130000A98C0001FFA80FB00221421022001F02F
:10314000D8F8054625B94FF0FF300FB0BDE8F08F35
:1031500000BF6089142801DA00BF00BF00BF14223D
:1031600068680B99FDF755F96E6861680498084422
:10317000606061890498081A6081CDF808B03FE06A
:1031800061890298814201DD029800E060898046F1
:10319000B8F1000F01D1246832E000F063F807466F
:1031A0002FB9284601F0CEFA4FF0FF30CDE7606826
:1031B0003B4602224146CDE90008032001F09AF97E
:1031C0008246BAF1000F08D1384600F050F8284680
:1031D00001F0B8FA4FF0FF30B7E7204601F0ADFB41
:1031E0007C611F4838615146284601F0BBF90298BE
:1031F000A0EB080080B20290029800B1246800BFE2
:1032000002980028BCD1CDF81080039800F033FD5F
:10321000F0800BF1140188B200F02DFD70800020C9
:10322000708114213046FFF7E5FE7081D9F8143023
:10323000294648460E9A9847284601F083FA09988D
:10324000A0EB0B0080B209900A990798084480B25D
:103250000790099800287FF452AF00BF75E700007F
:10326000E53A000810B5062000F06CFF10BD10B55F
:10327000044600BF0CB900BF00BF00BF21460620B6
:1032800000F018FF10BD00002DE9F04706460F467C
:10329000756828780421B1EB201F05D0304601F075
:1032A00051FA0020BDE8F087287800F00F094FF6AA
:1032B000FF7000EA8909688800F0F7FC8046708991
:1032C000484502DB3089404504DA304601F03AFADD
:1032D0000020E7E74146304601F0D7FA286948491F
:1032E0000860E868474908604FF0010A3C4600BFA3
:1032F00094F82D0000F0010078B1201D68B16068DD
:1033000058B13F4800686168884205D03C49086868
:103310002146FFF7A4FE00B10DE0BAF1000F04D082
:103320004FF0000A3848046800E02468BC4200D12D
:103330002468002CDCD100BF324908683946FFF709
:103340008EFE28B92F48007800F0F000E02804D164
:10335000304601F0F7F90020A4E724B9304601F027
:10336000F1F900209EE7E8884FF63F71084038B138
:10337000304600F0DDF806460EB9002092E7756889
:1033800022480760224805603946304601F034FB88
:1033900058BB687A01280DD0062806D011280ED116
:1033A0003946304603F082FF1EE03946304601F0D0
:1033B000CFFE19E039463046FFF714FD14E01049FE
:1033C00008683946FFF74BFE50B90D48007800F009
:1033D000F000E02804D0756002213046FFF7F8FCC9
:1033E000304601F0AFF900BF00BF00200749086078
:1033F00007490860034908600149086000BF51E7B8
:10340000B0000020AC000020CC000020A400002070
:10341000A80000202DE9FE4F05460F4616469846A7
:10342000DDE90C9A00BFE889012801D000BF00BF88
:1034300000BF304600F02CFB040002D1001FBDE8A5
:10344000FE8F4346324639462846CDE9009A02941B
:1034500000F002F8F3E700002DE9F84F05460F46AB
:1034600090469A46DDF828B00C9E00BFE8890128F6
:1034700001D000BF00BF00BFB8F1000F40D04FF037
:1034800014091421284601F0BAF918B16FF00100AF
:10349000BDE8F88F6C6800BF6889142801D200BFAE
:1034A00000BF00BF84F808A00B986072D8F8000035
:1034B000206148464FEAE97109EB9171C1F3870138
:1034C00041F04001217084F801B0288900F0D3FB5D
:1034D00060800020E0801548008800F0CCFBA080D0
:1034E00012480088401C114908800FB1386810B993
:1034F0007068E06001E03868E0600020608103E00F
:103500006C6820690090E846B08C48B12889B18C7D
:10351000884205DD424631462846FFF7C7FDB7E73A
:1035200042462946304673699847B1E7B400002007
:103530002DE9F84F804600200090D8F804502878F4
:1035400000F00F001421B1EB800F00D0ACE0E88850
:1035500000F0ABFBC0F30C004FF6FF7101EAC00AAC
:10356000688800F0A2FB297801F00F01A0EB810030
:103570001FFA80FB404601F01DF806464D480188C1
:1035800088190A280ADD3146284600F01BFA20B1C6
:103590004848008830440A2800DD85E04648046831
:1035A00012E06069E968884209D1A0692969884206
:1035B00005D1A089A988884201D1012000E000201E
:1035C00000B103E000942468002CEAD100BF34B9B4
:1035D0003146284600F060F9044694B964E0E88872
:1035E00000F063FBC0F30C0058B9E08900F05DFB0C
:1035F000C0F30C0028B11422294604F10800FCF79E
:1036000008FF2C48008830442A490880A87900F037
:10361000200030B9A07F40F00100A0770AEB0B003A
:10362000A0834146204600F049F8D0B3A08B143067
:10363000A08360684068076860684568142204F1E8
:1036400008012846FCF7E5FEA08B00F014FB68801B
:103650000020E880688114212846FFF7CBFC6881B0
:10366000D4F804800CE0D7F804906FF013013846CA
:1036700001F0C5F83946404600F074FFD9F80070F3
:10368000002FF0D12046009900F0ECF8404600F001
:1036900091FF08490988081A064908804046BDE894
:1036A000F88FFFE70020FAE7404601F04BF80020D2
:1036B000F5E70000BC000020B80000202DE9FC5F09
:1036C00006460F4600254FF0010BD7F804A0BAF8C4
:1036D000020000F0EAFA9AF8001001F00F01A0EBE6
:1036E000810080B20090BAF8060000F0DEFAC0F364
:1036F0000C004FF6FF7101EAC000019000BF00BF4F
:103700007C68002020600198A080DDE9001008445A
:10371000E080D6F804902EE0D9F80480A088B8F8AC
:103720000410884210DAC4F800905DB1A088E988DE
:10373000884204DBE088B8F80410884200DD81E0AC
:103740002F6000E0776019E0A088B8F80410884284
:1037500000D177E0A088B8F80610884200DA71E05E
:1037600035B1E888B8F80410884201D04FF0000B5A
:10377000D8F800904546B9F1000FCDD100BFB9F19E
:10378000000F17D17DB100BFE888A188884201DD14
:1037900000BF00BF00BF2F60E888A188884209D021
:1037A0004FF0000B06E000BF706808B100BF00BF1B
:1037B00000BF7760B07F00F00100E8B3BBF1000FFD
:1037C00039D070684068808810B14FF0000B32E04B
:1037D0002546D4F800900BE0D9F80440E888A18889
:1037E000884202D04FF0000B05E02546D4F8009047
:1037F000B9F1000FF0D100BFBBF1000F1BD000BF2B
:10380000706808B900BF00BF00BF00BF70684068A3
:10381000A04201D100BF00BF00BF00BF206808B1B7
:1038200000BF00BF00BF00BFE088B18B884201D05D
:1038300000BF00BF00BF00E002E05846BDE8FC9FAB
:103840000020FBE7384600F0B5FE05490988081A54
:1038500003490880384600F075FF0020EEE70000BD
:10386000BC00002070B504460D460A480068A0421E
:1038700003D108492068086006E000BF0DB900BF09
:1038800000BF00BF206828602146052000F012FC20
:1038900070BD0000B800002070B505460E4605203A
:1038A00000F050FC044664B93146284600F08AF81E
:1038B000B04203DB052000F045FC04460CB90020B3
:1038C00070BD20212046FCF7E9FD0320E077064883
:1038D00000682060044804601422294604F10800AE
:1038E000FCF797FD2046EBE7B80000202DE9F047F4
:1038F00004468846002500BFA04501D100BF00BF97
:1039000000BFB8F1000F07D000BFD8F80000A042F8
:1039100001D000BF00BF00BF6068D0F80490B9F8C4
:103920000400F0B96768D9F800006060142204F15F
:1039300008017868FCF76DFD01213846FFF751FB5F
:10394000384600F037FE064600BFA819B0F5803FA4
:1039500001DB00BF00BF00BFA81985B2384600F0E8
:10396000F1FE676816E0D7F80490BA46D9F80070FF
:10397000504600F01FFE064600BFA819B0F5803F74
:1039800001DB00BF00BF00BFA81985B2504600F0A0
:10399000D9FE00BF002FE6D141462046FFF762FF67
:1039A00000BF07480088A84201DA00BF00BF00BF7F
:1039B00003480088401B024908802846BDE8F0877C
:1039C000BC0000202DE9F05F05468946002700BFB6
:1039D0000026B346B246194804681DE06069E968EC
:1039E000884207D1A0692969884203D1A089A988A2
:1039F000884201D0012000E0002048B10AF1010A0C
:103A00000EB9264604E0E07FF17F884200DC2646BE
:103A1000206800B1A3462468002CDFD12EB159469E
:103A20003046FFF763FF804647444F4502DABAF15C
:103A3000010FCDDC3846BDE8F09F0000B800002043
:103A400010B5044600F00AF8002203494FF47A70DA
:103A500001F016F810BD0000413A000870B50025CD
:103A60000A4804680FE0E07F002805DDE07F401E83
:103A7000E0772546246806E0264624682946304635
:103A8000FFF734FF00BF002CEDD170BDB80000205F
:103A900010B50246114801680FE091F82D0000F0C2
:103AA000010048B110688B681840D1E90134234007
:103AB000984201D1084610BD09680029EDD1084897
:103AC000006830B10648006890F82D0000F0010051
:103AD00008B90020EFE702480068ECE7CC000020BE
:103AE000D000002070B505462C4600BF0CB900BFC1
:103AF00000BF00BF00BFAC4201D000BF00BF00BF8D
:103B0000606910B1606900F01DFE2046FFF7AFFB51
:103B100070BD000070B50446FFF756F90546062053
:103B200084F82600287884F8270069782820015531
:103B3000A97829200155E9782A20015529792B20D7
:103B4000015569792C20015540F2DC50A084FFF723
:103B500031F92062322084F82D00052211491248E3
:103B6000FCF74CFF052211491148FCF7FFFE002627
:103B700006E00F4901EB06100121FCF721FF761C3E
:103B8000052EF6DB002607E0074901EB06104FF48F
:103B90004001FCF75BFF761C052EF5DBFDF7C8F94D
:103BA00070BD0000182100201803002068030020C9
:103BB000C80200202DE9F04387B081460026002589
:103BC00001A8FDF75DF901A807C804AB07C3049875
:103BD00087B2DDF8148003223946104600F089FBD5
:103BE000054665B12C4608E0628908EB060160686D
:103BF000FCF70FFC608906442468002CF4D14FF0D8
:103C00000040069908600748406900F0800020B134
:103C100080200449486100208860284607B0BDE83C
:103C2000F0830000009002402DE9F04180460E46EE
:103C30000025FCF733FF0746344607E06289781910
:103C40006168FCF7E6FB608905442468002CF5D127
:103C5000A8B2FDF7CFF90020BDE8F08101460806C3
:103C600001F47F4240EA022001F47F0240EA122080
:103C700040EA1160704701460806000C40EA112036
:103C8000704710B500F0B0F800F02AFA00F0B2FA70
:103C900003F00AFB01F05AFA00F044FF10BD00B532
:103CA00003461846FFF7DAFF00BD00B5024610468E
:103CB000FFF7E1FF00BDF8B505460A462B46002098
:103CC0000090002103F0010636B1002A04DD13F84C
:103CD000010B8DF80100521E1C4603E034F8027BF4
:103CE0003944921E012AF9DC002A02DD20788DF881
:103CF0000000BDF80000014488B200EB114188B219
:103D000000EB114126B1C8B2C1F3072747EA0021F1
:103D100088B2F8BD1CB514A103C9CDE90001FEF7B6
:103D2000C3FAFDF7C2FDFDF7C4FDFDF7C7FDFDF7C2
:103D300081FCFDF787FC15E0FDF7C4F94FF47A70BC
:103D4000FEF7B8FA69460020FDF7B2FF20B1052260
:103D500069460020FEF724F8FCF7D6FD4FF4FA7010
:103D6000FEF7A8FAE8E7000068656C6C6F000000D9
:103D700070B5044604B970BD00BF04F0030008B17B
:103D800000BF00BF00BF00BF14480068844203D3D7
:103D900013480068844201D300BF00BF00BF0F4832
:103DA0000068844203D30E480068844200D3E2E7EF
:103DB000A4F1080500BF287908B900BF00BF00BF03
:103DC0000020287107480068854201D20548056037
:103DD000284600F0B7FD00BFCDE70000C00000207E
:103DE000C4000020C800002000BF00BF114921F01E
:103DF0000301114A1160114608684FF47A5101809D
:103E00000021418001711146096801F57A510B4A80
:103E100011600121126811714FF47A51074A12683A
:103E20001180064A1268518003490968044A1160EA
:103E300070470000CB3E0020C0000020C4000020DE
:103E4000C8000020F0B502460AB90020F0BDD01C21
:103E500020F0030082B20C2A00DA0C22B2F57A5F5D
:103E600001DD0020F2E73E4800883E4E3688801B88
:103E700083B26EE03B480068C1180879002865D11C
:103E80000E8803F10800301A90425FD30E8803F1C8
:103E90000800361A02F11400864218D303F1080014
:103EA000104485B22F48006844190020207108880A
:103EB000208063800D80012008712088B0F57A5F32
:103EC00007D02088274E36683044458001E0012025
:103ED00008712348006881421CD1214E306803E0FC
:103EE0000688204F3F68F01906791EB11E4E3668CD
:103EF000B042F5D11A4E306000BF36681A4F3F68A5
:103F0000BE4205D0164E366836790EB100BF00BFEE
:103F100000BF00BF00BF01F108001044124E366818
:103F2000B04201D900BF00BF00BF00BF01F00300D5
:103F300008B100BF00BF00BF00BF01F0030008B11F
:103F400000BF00BF00BF01F108007FE7054800681F
:103F5000C35AC2F57A5098428CDC002076E7000004
:103F6000C8000020C0000020C40000202DE9F0415E
:103F700005460A46D01C20F0030082B20C2A00DA63
:103F80000C22B2F57A5F02DD0020BDE8F08100BFAF
:103F900045480068854203D344480068854201D300
:103FA00000BF00BF00BF40480068854203D33F48C0
:103FB0000068854201D32846E7E7A5F108043A489E
:103FC0000088201A86B22088801B083887B200BF7C
:103FD000BA4201DD00BF00BF00BFBA4201DD0020D0
:103FE000D3E7BA4201D12846CFE72088DFF8B8C02E
:103FF000DCF800C000EB0C01087980BB088806F1F2
:10400000080C94441FFA8CF3DFF8A4C0DCF800C05D
:104010008C4508D1DFF890C0DCF800C09C44DFF884
:104020009080C8F800C0DFF880C0DCF800C00CEB5E
:1040300003014FF0000C81F804C008804E802380FB
:10404000B1F800C0BCF57A5F08D0B1F800C0DFF865
:104050005880D8F80080C444ACF8023022E0FFE772
:1040600002F11400B8421DD806F10800104483B2D2
:104070000D480068C1180E480068814201D20C4802
:10408000016000200871208808804E802380088805
:10409000B0F57A5F06D00888DFF80CC0DCF800C005
:1040A00060444380284670E7C0000020C400002020
:1040B000C800002001B9704700BF01F003030BB135
:1040C00000BF00BF00BF0A46044B53F82030136006
:1040D000024B43F8202000BFEDE700005C7D00208C
:1040E00010B5002001E0431C98B20A28FBDB114BFD
:1040F00023F00301002019E000230F4C44F8203086
:1041000000220CE00C4B53F820300B600A4B43F8B4
:1041100020100A4B33F810301944531C9AB2084B44
:1041200033F810309342EDDC431C98B20A28E3DBED
:1041300010BD0000877D00205C7D00205C740008BD
:1041400070740008024600BF0A2A03DB00BF00BFEC
:104150000020704700BF094850F8221059B1074BA2
:10416000086843F8220000BF01F0030008B100BF57
:1041700000BF00BF00BF0846EBE700005C7D0020E9
:104180002DE9F04704460E4617469846DDE9095AE0
:10419000DDF8209000BF0DB900BF00BF00BF0020B8
:1041A0006060A060E06084F82D00C4F81C900F48A7
:1041B000007884F830000D480078401C0B490870E6
:1041C000C4F810A043463A463146204600F013F8A2
:1041D0002046A84710B10020BDE8F08704480068D9
:1041E0002060034804602046F6E70000D400002069
:1041F000CC00002070472DE9F04106460F461446DA
:104200001D463946304600F017F82146304600F08A
:104210004FF82946304600F009F8BDE8F08100006B
:104220000149086070470000D000002009B9002251
:1042300000E00A68C26070472DE9F04107460C466D
:1042400054B320687968884201D1012000E0002041
:1042500010BB154806680BE030687968884206D1C3
:10426000D6F80C80304600F0C5FC464600E0F66803
:10427000002EF1D10D4805680CE055B1286840B119
:1042800028687968884204D10CB9002000E02068D1
:104290002860ED68002DF0D10CB9002000E0206806
:1042A0007860BDE8F0810000EC000020E80000200C
:1042B00009B9002200E00A688260704710B5044620
:1042C00094F82D0000F0010090B914F82D0F40F083
:1042D0000100207014F82D0900F0100040B194F88E
:1042E0002D0000F0200018B1211D2046FEF7FAFB3A
:1042F00010BD2DE9F05F83460F469146BBF1000FDC
:1043000009D0BBF1010F08D0BBF1020F07D0BBF100
:10431000030F08D105E036260CE022260AE00E261F
:1043200008E0002606E000BF00BF00BF00BF00207D
:10433000BDE8F09F00BFB9F1000F72D0B9F1010FD5
:1043400070D0B9F1020F6ED0B9F1030F6CD1092012
:10435000FFF7F8FE04460CB90020E9E784F80C905A
:104360000020206006F110002044C01C20F0030053
:10437000606000BF207900F0030008B100BF00BFFB
:1043800000BF2781F01C20F00300C0F50070B84288
:1043900001DD384604E0F01C20F00300C0F5007099
:1043A000608100BF61896068014404F50470814246
:1043B00001D900BF00BF00BF00BFF01C20F0030008
:1043C000C0F50070002801DC00BF00BF00BF012065
:1043D000E081A2466089A7EB000845E00920FFF7CD
:1043E000B1FE054625B9204600F0ACF900209FE754
:1043F00085F80C90002068732860CAF8005000BF50
:104400004FF6FF70804501DB00BF00BF00BFA5F87D
:1044100008801FFA88F0B0F5007F06DA1FFA88F0EE
:1044200005E025E049E049E057E04FF4007068817D
:1044300005F11000686000BF287900F0030008B1A2
:1044400000BF00BF00BF00BF61896068014404F580
:104450000470814201D900BF00BF00BF0120E88184
:104460006889A8EB0008AA46B8F1000FB6DC3AE06C
:1044700006F1130121F00302F91C21F0030111449C
:1044800088B2FFF7DFFC04460CB9002050E704F1C6
:1044900010003044C01C20F0030060602781678159
:1044A0000020206084F80C9000BF207900F0030009
:1044B00008B100BF00BF00BF15E000BF0820FFF734
:1044C00041FE04460CB9002032E7002060602781DD
:1044D0006781206084F80C9005E000BF00BF00BF3A
:1044E00000BF002024E700BF0120E08100206073AE
:1044F00020461DE7F0B505460C46DDE9056735B1F8
:10450000012D06D0022D06D0032D08D105E036215D
:104510000BE0222109E00E2107E0002105E000BFA9
:1045200000BF00BF00BF0020F0BD00BFC81C20F0CE
:1045300003002044B84201DD0020F5E700201860A8
:104540002EB1C81C20F003003044586001E0002068
:104550005860022058731C815C811A730120D88135
:104560001846E1E710B5024600BF02B111B900BF1D
:1045700000BF10BD00BF104604E003890C8923442E
:10458000038100680368002BF7D100BF03894489C9
:10459000A34201D000BF00BF00BF00BF03680BB142
:1045A00000BF00BF00BF03890C8923440381016061
:1045B00000BFDEE70146002002E0421CD0B20968DD
:1045C0000029FAD170472DE9F04105460C46002636
:1045D000002700BF25B11CB128892189884205DA4E
:1045E00000BF00BF6FF00D00BDE8F08100BF00BF4D
:1045F0006889801B6189C91B884204DB6089C01BF4
:104600001FFA80F803E06889801B1FFA80F862684F
:10461000D1196A6890194246FBF7FBFE06EB0800C9
:1046200086B207EB080087B200BF6889B04201DAA2
:1046300000BF00BF00BF00BF6089B84201DA00BF01
:1046400000BF00BF6089B84201DC00272468688988
:10465000B0420AD100262D6800BF2DB924B100BF99
:1046600000BF6FF00D00BFE700BF64B16089218912
:10467000884208D100BF206820B100BF00BF6FF0A2
:104680000500B1E700BF65B168892989884208D172
:1046900000BF286820B100BF00BF6FF00500A3E78E
:1046A00000BF002CA4D100209EE72DE9F05F8046DA
:1046B000894616461D464FF0000B00BFB8F1000FAB
:1046C00004D100BF00BF0020BDE8F09F00BF00BFC5
:1046D000B9F1000F03D100BF00BF0020F4E700BF15
:1046E0004FF0000AB8F1000F02D0B9F1000F01D16C
:1046F0000020E9E7444620E035B16089A84203DCA8
:104700006089281A85B217E06089401B87B2B742DA
:1047100000DD37466268511909EB0A003A46FBF79B
:1047200078FE0BEB07001FFA80FB0AEB07001FFA6D
:1047300080FAF01B86B2002524680EB1002CDBD174
:104740005846C1E72DE9F04704463CB900BF0CB913
:1047500000BF00BF00BF0020BDE8F08700BF207B86
:1047600050B1207B012807D0207B022804D0207B79
:10477000032801D000BF00BF00BF00263BE000BF00
:10478000E089002801DC00BF00BF00BFE089401EB7
:104790001FFA80F8A4F80E80B8F1000F29D127681D
:1047A000257B607B00F0020060B1A14600BFD9F814
:1047B000100008B900BF00BF00BF2046D9F8101094
:1047C000884712E0032D04D121460920FFF772FC2F
:1047D0000BE0012D01D0022D04D121460820FFF766
:1047E00069FC02E02046FFF7C3FA701CC6B23C46E3
:1047F00000E0002400BF002CC1D13046ACE770B50A
:10480000024600BF0AB900BF00BF00BF01B10AB92C
:10481000002070BD00290ADA484284B200BF5089E6
:10482000A04203DA00BF00BF0120F2E700E08CB233
:10483000137B55680BB1032B0AD15068401A5060A6
:1048400002F110005668864217D255600120E0E759
:10485000022B01D0012B0AD1002906DA5089A0428F
:1048600003DB5068401A506007E00120D1E700BF29
:1048700000BF00BF00BF0120CBE750890844508132
:104880001089084410810020C3E72DE9F041054656
:104890000F4600BF0DB900BF00BF00BF00BF287B9F
:1048A000032809D0287B012806D0287B20B1287B4B
:1048B000022801D000BF00BF00BF2889B84201DC38
:1048C000BDE8F0812889A7EB00083E462C4613E09E
:1048D0006089301A86B200BF4FF6FF70804501DB59
:1048E00000BF00BF00BF208940442081246800BF72
:1048F0000CB900BF00BF00BF6089B042E8DB207B7D
:1049000078B96089B0420CD0A088001B304481B2D5
:104910002046FFF72BFB044600BF0CB900BF00BFC9
:1049200000BF668160892081206810B12068FFF790
:1049300009FF0020206000BFC2E710B1C189491CF7
:10494000C181704730B500BF284B1B68984201D227
:1049500000BF00BF00BF00BF254B1B68984201D3BA
:1049600000BF00BF00BF00BF03790BB100BF00BF95
:1049700000BF00BF0388B3F57A5F01DD00BF00BF51
:1049800000BF0388194C24681919884215D00B7987
:104990009BB9174B1B6899420FD0164B1B688B4273
:1049A00001D1144B18600B880380104B1B88C31A6D
:1049B0000C880E4D2D682C44638043880B4C246872
:1049C0001A19824211D013797BB90A4B1B688342B2
:1049D00001D1084B1A6003881380044B1B88D31A3B
:1049E0000488024D2D682C44638030BDC000002037
:1049F000C4000020C80000202DE9F04705468A4683
:104A00000027D5F8048098F8099000261448046817
:104A10001FE0207C48451AD134B1206820B11149EB
:104A200020680968884212D1606980B10E4B2A461D
:104A30002146D4E905C0E04748B10025012736B139
:104A4000E068F06006480068E060054804602646BB
:104A5000E4680FB9002CDCD13846BDE8F0870000CF
:104A6000D8000020B0000020AC0000200149086000
:104A7000704700002800002010B5FEF79FF910BD18
:104A80002DE9F04106460F4690460720FFF75AFBF6
:104A9000044634B900BF0CB900BF00BF00BFBDE879
:104AA000F08100202060A760C4F80C8066601C487C
:104AB000006810B91A480460F1E7194800684068B6
:104AC000B0420CD9164800684068801B1449096838
:104AD0004860134800682060114804601DE01048D9
:104AE000056817E060686968401A6060286820B14E
:104AF00028684068616888420BD9286828B128680E
:104B000040686168401A29684860286820602C6005
:104B100002E02D68002DE5D100BF00BFBFE7000017
:104B20002001002010B5002207494FF47A70FFF7EA
:104B3000A7FF0022054941F28830FFF7A1FFFFF7E8
:104B40009BFF0349086010BD413A00088D22000810
:104B5000240100202DE9FC4704460E4600BF207EBC
:104B6000012801D100BF00BF00BF207E0A2808D164
:104B700021461D4801F076F821460220FFF79AFAF7
:104B80002FE0276DD4F82880D4F88850D4F81090FE
:104B900000BF2146154801F065F80120144908704E
:104BA00000BF206F10B1206F02F043F8E06E10B12B
:104BB000E06E02F03EF84EB1A08B618B231D2246C1
:104BC000CDE900104146384601F0E3FF21460220BE
:104BD000FFF770FA00BF1DB16FF009014846A84702
:104BE00000BFBDE8FC870000F0000020EC000020C2
:104BF000F800002010B5044601212046FFF7AAFF67
:104C000010BD000070B506460220FFF79BFA04466F
:104C10007CB900F051FD0220FFF794FA04463CB93C
:104C2000304600F01FFD0220FFF78CFA044600BF5B
:104C300000BF002C3AD094212046FBF72FFC103403
:104C4000667241F2D060A4F856000020A4F8580023
:104C500040F66830A083E083002004F8070CFF20B2
:104C600004F8060C4FF40670E0840620A0860020AD
:104C7000208606206086C01FA0840120A08700F047
:104C8000D1FD0546A5642564A563E5640848006870
:104C900060610848007860740020E0730648E066B0
:104CA0000648E067002084F88200103C204670BD72
:104CB000E0000020FA000020016A000800DD6D001D
:104CC00010B50446207E012803D0A07F40F01000DC
:104CD000A0770121204600F001F810BD7CB5044604
:104CE0000E46002E61D0207E042802D0207E0728A8
:104CF0005BD1606F20B9A08D40F66831884254D0F6
:104D000000BFA07F00F0100008B900BF00BF00BFC7
:104D1000A08B618BCDE90010231D2246A16A206D76
:104D200001F037FF204600F07DFF00BF00BF5A486A
:104D30000068A04205D158480068C068564908601C
:104D400018E055480068554908600EE0534800686F
:104D5000C068A04204D15149E0680968C86008E011
:104D60004E480068C0684D4908604C4800680028FB
:104D7000ECD100BF0020E06000BF0120484908706E
:104D800000BF207E04280AD10A20207600BF4548B3
:104D90000068E0604348046002F068F903E02146DF
:104DA0000220FFF787F900207CBD207E082868D20A
:104DB000DFE800F004343F4F5767675F0025608BE2
:104DC00030B300BF38480068A04205D136480068BB
:104DD000C0683549086018E0334800682F4908600A
:104DE0000EE02E480068C068A04204D12B49E0685C
:104DF0000968C86008E029480068C0682749086059
:104E0000264800680028ECD100BF0020E06000BF09
:104E100021460220FFF74EF9002435E00025214607
:104E2000224800F01FFF21460320FFF743F900242A
:104E30002AE0002500BF2146174800F013FF01209B
:104E40001749087000BF21460220FFF733F90024FC
:104E50001AE0204601F020FF05460DB90520207616
:104E600012E0204601F018FF05460DB90520207616
:104E70000AE0204601F010FF05460DB90920207612
:104E800002E00025002400BF00BF1CB115B9204678
:104E900000F0D6FC284687E7EC000020F400002054
:104EA000F8000020F0000020E4000020E8000020CE
:104EB0002DE9F05F07460E4691469A46DDF82880B8
:104EC00008F0010008B1042000E0002008F0020111
:104ED00009B10C2100E0002145180420FFF732F948
:104EE000040005D13046FFF72DFC0020BDE8F09FFF
:104EF00084F80A800020206066603089401B208191
:104F000014213046FFF77BFC20B1204601F084FEDF
:104F10000020EBE760684068E060788BFEF7ABFE4E
:104F2000E1680880B88BFEF7A6FEE168488050462D
:104F3000FEF794FEE1684860AB46E91705EB917116
:104F40008910491D49EA013188B2FEF794FEE168F3
:104F500088810020E16848822046C7E72DE9F041BA
:104F600005460E463046FEF793FD044654B1A08C2C
:104F700040B1A08C283887B2BD4201DA284600E053
:104F8000384605462846BDE8F0812DE9F843044639
:104F90000D464FF00008C14600BF05F0030008B9F8
:104FA00000BF00BF00BFB4F86800082805DAB4F8F5
:104FB00068004FF6FC71884207D9A07F40F080005E
:104FC000A0774FF0FF30BDE8F88305F0020008B18C
:104FD0004FF0010808F0010008B1042000E00020B3
:104FE00008F0020109B10C2100E0002100EB0109E9
:104FF000B4F8660010B94FF0FF30E4E700224946EC
:105000001046FFF776F9070005D1A07F40F0800039
:10501000A077781ED7E700BF7889484501DA00BF3E
:1050200000BF00BFCDF800802A4639462046E36D18
:10503000FFF73EFF060005D1A07F40F08000A0777B
:10504000701EC0E700BF307B00F0030008B100BF56
:1050500000BF00BF00BF308908B100BF00BF00BF64
:10506000E06E08B9E66607E0E06E00E000680168FF
:105070000029FBD1066000BF0020A4F86A0005F0FB
:10508000020010B905F0010038B1E06D401CE06588
:10509000B4F86600401EA4F8660005F0010018B1DF
:1050A000A07F40F02000A0777068FFF783FA34F803
:1050B000681F0844208034F8680938B100BF206FA9
:1050C00018B9E06E08B900BF00BF00BF00207AE742
:1050D00070B51B480078401C1949087000BF19487A
:1050E000046829E094F8210015490978884223D002
:1050F0001348007884F82100A07F00F0010060B11F
:1051000000BFA07F40F00200A07700BF204600F063
:1051100097FBA07F20F00300A077E568606F48B19F
:10512000002009490870204601F0C2F806480078BE
:1051300000B1D4E72C4600BF002CD3D170BD0000D5
:10514000FA000020EC000020F8000020704700006A
:105150002DE9FC4706468A46F64970680860F5481E
:1051600071680068007800F00F0001EB8000F249E0
:105170000860F048006800780007800E4142304621
:10518000FFF73DFB10B93089142800D231E2EB491A
:1051900008685146FDF763FF28B9E848007800F039
:1051A000F000E02800D124E2E34909688889FEF78D
:1051B0007CFD4FEA20394FEA890041423046FFF733
:1051C0001EFB00B115E2DC4909680888FEF76DFD99
:1051D000D94909680880D84909684888FEF765FDFB
:1051E000D54909684880D44909684868FEF757FDE1
:1051F000D14909684860D2490860CF490968886880
:10520000FEF74DFDCC4909688860CE490860CA495F
:105210000968C889FEF749FDC7490968C881C649B8
:1052200009688889FEF741FD00F03F00C649087013
:105230003089097801F0030109B1012100E0002162
:105240000844C24908800027C148046842E000BF02
:10525000207E08B900BF00BF00BF00BF207E0A2823
:1052600001D100BF00BF00BF00BF207E012801D1D7
:1052700000BF00BF00BFA08BAF4909680988884202
:1052800026D1608BAC4909684988884220D1B14950
:105290006068096888421BD1A8492068096888426B
:1052A00016D100BFE068A04201D100BF00BF00BF1F
:1052B00037B1E068F860A6480068E060A448046080
:1052C00000BFE068A04201D100BF00BF00BF03E003
:1052D0002746E468002CBAD100BF002C52D19E486A
:1052E000046825E000BF207E0A2801D000BF00BF6F
:1052F00000BFA08B904909680988884217D1608B4C
:105300008D4909684988884211D1924960680968C5
:1053100088420CD1894920680968884207D1204613
:1053200001F0C0FE3046FFF70DFABDE8FC87E468E7
:10533000002CD7D100278948056810E0688B7E498A
:1053400009684988884208D17C49286809688842E8
:1053500002D00DB1286800B903E02F46ED68002D9A
:10536000ECD100BF75B137B1E868F8607B480068E0
:10537000E8607A480560284600F0BCF93046FFF73F
:10538000E1F9D2E7002C76D0002075490860308919
:1053900008810846466068480068C8600020714976
:1053A0000860714908706848007800F0080018B17A
:1053B000707B40F001007073606F58B1204600F0C0
:1053C00077FF0A3028B1606F20B16048008800285C
:1053D00000DDDDE065480460204600F093FC804677
:1053E00008F10A00002817D05F48007800F0080094
:1053F00098B100BFD4F8880028B16FF00A01D4F842
:1054000088202069904700BF2146514800F02AFCBF
:1054100021460220FEF74EFEB9E05348007800F026
:105420001000B8B1A07F00F0100050B900BFD4F850
:10543000880028B16FF00B01D4F8882020699047CC
:1054400000BF2146424800F00DFC21460220FEF735
:1054500031FE9CE04FF00008B4F86400002812DD33
:1054600000BFA06F40B1B4F864202146A36F20694B
:105470009847804602E09BE04FF0000800BF08F12B
:105480000A0000B984E03748006888B300BF606F45
:1054900008B100BF00BF00BFA07F00F0100038B10E
:1054A00030480068FFF74EF92046FFF7A3FB6FE096
:1054B00000BFE06F48B100232A49D4F87CC02069BE
:1054C0000A682146E047804607E000232548214638
:1054D0000268184601F094FA804600BF08F10A00FD
:1054E00000B955E0B8F1000F02D01E4800686067AF
:1054F0001D48007800F02000D0B3606F30B1606FBD
:10550000407B40F02000616F48733AE0A08D40F688
:105510006831884202D0A08D401CA08500BFE06F9A
:1055200038B300231A462146D4F87CC02069E047EE
:10553000804621E00401002000010020B00000208E
:10554000080100200C0100201001002012010020A1
:10555000EC000020AC000020F0000020E80000205B
:1055600080B2002018010020140100201C0100203E
:1055700007E0FFE74FF0000800BF08F10A0000B99C
:1055800006E000201D490860204600F059F900BFE0
:1055900000201A4908601A4908601A48406828B370
:1055A00018494868FFF7CEF80020164948601DE00A
:1055B000154909688889FEF778FB00F0040090B966
:1055C000114800680088104909684988CDE9001031
:1055D0000E4800680E4A128881180E4B0E4A0F487A
:1055E000006801F0D6FA3046FFF7ACF800BF00BF04
:1055F0009BE63046FFF7A6F800BF96E61C010020A8
:105600001801002080B200200001002008010020C5
:1056100012010020AC000020B00000200C0100208E
:105620002DE9FC410446216D481EFEF717FB074695
:105630003B4600221146204600F0ECF905460DB924
:10564000BDE8FC816E6806200021CDE90010A37A38
:10565000221D21462846FDF7DDFE2846FFF772F899
:1056600000BFEDE72DE9F04106464FF07F08002727
:1056700000250F48046813E0607EB0420FDC607EB6
:1056800040450CDC0B49606A0968081AB84206D329
:105690000849606A09680F1A254694F81980E46879
:1056A000002CE9D115B12846FFF7A4FABDE8F08136
:1056B000EC000020E000002070B5002600250B481B
:1056C00004680BE00A49606A0968081AB04204D30A
:1056D0000749606A09680E1A2546E468002CF1D172
:1056E00015B12846FFF786FA70BD0000F0000020D3
:1056F000E00000207CB505464148007800F0040039
:1057000008B100207CBD3E48007800F0100098B140
:105710003C48006800883B4909684988CDE9001089
:1057200039480068394A12888118394B394A3A4851
:10573000006801F02EFA61E03148007800F00200C4
:1057400000285BD0687EFFF75DFA044614B94FF07D
:10575000FF30D7E72F4800682060688B60832C48B3
:1057600000686060274800680088A08303202076D6
:1057700025480068401CA062A06A20632148006898
:10578000C089A4F860001F480068C089A4F86200BE
:10579000B4F86000A4F84E001B480068401E606525
:1057A0002869206168696061287A00F08C002072A5
:1057B00000BF00BF19480068E0601848046001F0AD
:1057C00055FC00BF01201649087000BF204600F0BC
:1057D000CDF9E08E211DFFF7C1FBE08612212046A6
:1057E000FFF7D3FB06462EB100212046FFF7B2F9A2
:1057F000304687E7204600F023F883E7002081E762
:1058000010010020000100200801002012010020EA
:10581000AC000020B00000200C010020EC000020B3
:10582000F800002004480068044909680844024957
:105830000860084600687047FC000020E000002077
:105840002DE9F047044600BF207E012801D100BFAA
:1058500000BF00BF6E480068A04202D10020BDE832
:10586000F087B4F86000B4F84C10884202DAB4F85B
:10587000600001E0B4F84C008146E56EA07F00F0C6
:10588000020070B14DB1E9684868FEF708FAA16CF2
:10589000401A29890844484503D9204601F0D5F922
:1058A000DDE7266F26B100E0366830680028FBD1BE
:1058B00096E000BFE9688889FEF7F7F900F0040078
:1058C00008B100BF00BF00BF206FA0B1A07F00F0F3
:1058D000440080B9E06E38B1E06E006858B9E06EFF
:1058E0000089E18E884206DAB4F8660018B1B4F88F
:1058F0006800082801DB012000E0002020B9A07F1B
:1059000000F0A00000B977E02868E066207E022859
:105910000BD01020FEF7AFF9E96889890843E968E0
:105920008881A07F20F00300A0772146284600F060
:10593000B5F8E9684868FEF7B2F90746E96888896A
:10594000FEF7B3F900F0030008B1012000E00020E9
:105950002989084407EB0008206DB0EB080001D549
:10596000C4F85080E9688889FEF79FF900F00300C9
:1059700008B1012000E000202989084400282BDD1F
:1059800000202860206F10B925672E4627E0E968BF
:105990004868FEF784F90746F1684868FEF77FF922
:1059A000381A16D504F1700700E03F68386860B116
:1059B0003968C9684868FEF772F98246E96848683C
:1059C000FEF76DF9BAEB0000EFD4386828603D604F
:1059D00005E03560366802E0284601F01DF9E56E05
:1059E00055B1E9684868FEF75AF9A16C401A29894F
:1059F000084448457FF65DAF00BFE06E10B9002057
:105A0000A4F86A00A07F20F08000A077002026E79D
:105A10001C0100202DE9F04705460E4690469946A8
:105A200006F11400404481B200220120FEF761FC1F
:105A300007467FB300BF798906F11400814201DA7D
:105A400000BF00BF00BF7C68688BFEF714F92080A0
:105A5000A88BFEF710F96080C4F80490A86AFEF7DE
:105A6000FDF8A060B246F11706EB91718910491D4F
:105A7000102242EA013188B2FEF7FDF8A081E88DDC
:105A8000FEF7F9F8E081002020826082E98DA86AA3
:105A9000084428633846BDE8F08700002DE9FC473C
:105AA00005460C46A06AFEF7D9F8E9688860E08DE3
:105AB000FEF7E1F8E968C881E18DA06A0844206337
:105AC000E86800F11408A87A00F0010070B1211D07
:105AD00040F2B450FFF742FA814649F00170FEF7F8
