:020000040800F2
:1000000068B90020E1020008093000089F2B0008B1
:1000100005300008011D0008B13A0008000000008A
:10002000000000000000000000000000673400082D
:100030002F2000080000000021310008DD360008F4
:10004000FB020008FB020008FB020008FB0200089C
:10005000FB020008FB020008FB020008FB0200088C
:10006000FB020008FB020008FB020008FB0200087C
:10007000FB020008FB020008FB020008FB0200086C
:10008000DD1D0008FD1D0008FB020008FB02000842
:10009000FB020008FB020008FB020008FB0200084C
:1000A000FB020008FB020008FB020008FB0200083C
:1000B000FB0200084D370008FB020008FB020008A5
:1000C000FB020008FB020008FB020008FB0200081C
:1000D000FB020008FB020008C9380008FB02000808
:1000E000FB020008FB020008FB0200080000000001
:1000F0000000000000000000000000000000000000
:100100000000000000000000FB020008FB020008E5
:10011000FB020008FB020008FB020008FB020008CB
:10012000FB020008FB020008FB020008FB020008BB
:10013000FB0200083D220008FB020008FB02000849
:10014000FB020008FB020008FB020008FB0200089B
:1001500000F002F800F0B4F80AA090E8000C824425
:100160008344AAF10107DA4501D100F0A9F8AFF202
:10017000090EBAE80F0013F0010F18BFFB1A43F085
:10018000010318473C9500005C9500000A444FF0BD
:10019000000C10F8013B13F0070408BF10F8014BE6
:1001A0001D1108BF10F8015B641E05D010F8016B2B
:1001B000641E01F8016BF9D113F0080F1EBF10F88F
:1001C000014BAD1C0C1B09D16D1E58BF01F801CBB2
:1001D000FAD505E014F8016B01F8016B6D1EF9D535
:1001E0009142D6D37047000000230024002500264A
:1001F000103A28BF78C1FBD8520728BF30C148BF8A
:100200000B6070476E2900F0D582702900F01F84C2
:10021000662909F06581652909F06281672909F07D
:100220005F816129AFF3008003681B0A28BF41F09A
:100230008001692900F08282642900F07F8275299B
:1002400000F07C826F2900F0AD83782900F0EB8309
:10025000E92900F04783E42900F04483F52900F000
:100260004183EF2900F0AA83F82900F0EA830368AC
:10027000DB0928BF41F08001632900F0C38773299F
:1002800000F0C887E32900F0D387F32900F0D8876E
:10029000002070471FB59DE8030000F08FF901F0C2
:1002A00027F804000020002109F004F9401C6060D8
:1002B0000020002109F0E8F8E0601FBD10B510BD76
:1002C00000F0E9FF1146FFF7E5FF05F02BF901F01B
:1002D000C1F803B4FFF7F2FF03BC01F0EFF8000030
:1002E0000948804709480047FEE7FEE7FEE7FEE7CA
:1002F000FEE7FEE7FEE7FEE7FEE7FEE70448054906
:10030000054A064B70470000E1360008510100081D
:1003100068B3002068B9002068B5002068B50020E7
:1003200070B5A0FB0140B4F1805170F1000024BF12
:10033000002070BD204600F070F905001CBF21466A
:1003400000F0D4F8284670BD70B50446051F00F0D3
:1003500019F90068002C14BF446870BD002C18BF48
:10036000AC423CBF20466468F8D301680A18AA4230
:1003700018BF456003D12A6805461144016028680A
:100380004119A1421CBF6C6070BD61686960216841
:100390000844286070BD00007CB51D4616460C0060
:1003A000009001D02044401E074B7B442A466946FA
:1003B0000190304600F017FA05461CB1002069464E
:1003C00000F024FA28467CBD6904000040EA0103DD
:1003D00010B59B070FD1042A0DD310C808C9121FEE
:1003E0009C42F8D020BA19BA884201D9012010BD28
:1003F0004FF0FF3010BD1AB1D30703D0521C07E0F5
:10040000002010BD10F8013B11F8014B1B1B07D158
:1004100010F8013B11F8014B1B1B01D1921EF1D1C9
:10042000184610BD10B5431C02E010F8011B71B155
:100430008107FAD14FF0013202C88C1A8C4314EABA
:10044000C211F9D0C01A0A0603D0C01E10BDC01ACE
:1004500010BD0A0401D0801E10BD0902FCD0401E50
:1004600010BD032A40F2308010F0030C00F015801C
:1004700011F8013BBCF1020F624498BF11F801CBA7
:1004800000F8013B38BF11F8013BA2F1040298BF0C
:1004900000F801CB38BF00F8013B11F0030300F076
:1004A000A583083AC0F0088051F8043B083A51F897
:1004B00004CBA0E80810F5E7121D5CBF51F8043B1F
:1004C00040F8043BAFF30080D20724BF11F8013B92
:1004D00011F801CB48BF11F8012B24BF00F8013BF4
:1004E00000F801CB48BF00F8012B70474FF0000225
:1004F0000429C0F0128010F0030C00F01B80CCF136
:10050000040CBCF1020F18BF00F8012BA8BF20F8A3
:10051000022BA1EB0C0100F00DB85FEAC17C24BFF7
:1005200000F8012B00F8012B48BF00F8012B7047A1
:100530004FF0000200B5134694469646203922BF7C
:10054000A0E80C50A0E80C50B1F12001BFF4F7AFC7
:10055000090728BFA0E80C5048BF0CC05DF804EBA9
:10056000890028BF40F8042B08BF704748BF20F817
:10057000022B11F0804F18BF00F8012B7047704715
:1005800070477047004870470CB3002070477047B1
:100590007047704738B504460A4600206946AFF3F5
:1005A0000080002808BF38BD02460099204600F0B0
:1005B0005AFB012038BD012000F066BEF8B5AFF34C
:1005C0000080054600200C46102000BF0646A819F2
:1005D000A0420DD9324669460020AFF300800700E3
:1005E00008BF00F051FE0098A04218BF0546C4198C
:1005F000FFF7C8FF05600746F01D20F00700461909
:10060000284600F029FBB44208BFF8BDA21B3146C2
:100610003868BDE8F84000F026BB70B50646FFF725
:10062000B1FF056806F10B0020F00704B4429CBF3F
:10063000002070BD2B466A68BAB11068A04210D382
:1006400004F1080188423CBF5068586007D35168E4
:10065000101941601168091B016058601460101D79
:1006600070BD13465268002AE7D121462846FFF79D
:1006700091FF0028DED170BD70B504468569006821
:10068000C10601D5302600E02026C00707D070BD86
:10069000D4E9012130469047206A401C20626D1E3B
:1006A000F6D570BD70B5044685690078C00707D1DE
:1006B00070BDD4E9012120209047206A401C2062AF
:1006C0006D1EF6D570BD09684A0501D540B2704768
:1006D000C905FCD500B2704709684A0501D5C0B20A
:1006E0007047C905FCD580B2704770B50C46054609
:1006F000012A05D02878800600D5EA69002302E0A7
:10070000012305E05B1C934202D2E05C0028F9D192
:10071000A869E618C01AA861286A18442862284601
:10072000FFF7AAFF04E0D5E9012114F8010B904777
:10073000B442F8D32846FFF7B5FF70BD2DE9F0416C
:100740000646002410687529314616A510D0FFF71B
:10075000BAFF002802DA404213A507E031688A0791
:1007600001D512A502E0490704D511A5012401E035
:10077000FFF7B2FF00210A2206F1240709E0B0FBCF
:10078000F2FCB0FBF2F302FB1C0030307854184648
:10079000491C0028F3D123462A463046BDE8F041E3
:1007A00000F0C0BA000000002D0000002B00000087
:1007B0002000000011680268006A530501D5087026
:1007C0000AE0D30501D5088006E0130603D5C21759
:1007D000C1E9000200E008600120704701694A1C7D
:1007E00002610878704700B58FB0CDE90131002172
:1007F000059105497944CDE903101146684600F09A
:1008000031F90FB000BD0000E5FFFFFF0A6802F8F4
:10081000010B0A607047D1E900239A4202D2531CAF
:100820000B601070704700002DE9FF5F15468A4687
:100830000446DFF8AC80F8440027D8E900103E46B3
:10084000CDE9001010E03AF816106A4602A800F050
:10085000FBFC411C07D02178890603D5E2693918D1
:1008600091420DD80744761C2078800602D5E069B5
:10087000B84205DDAE42E6DB3AF816000028E2D1C8
:10088000A069C01BA0612046FFF7F6FED8E9001062
:10089000CDE90010002017E03AF818106A4602A8C7
:1008A00000F0D2FCB0F1FF3F81460BD000250DF1E6
:1008B000080B05E0D4E901211BF8050090476D1CE9
:1008C0004D45F7D308F10100B0428046E4DB206AD1
:1008D000384420622046FFF7E5FEBDE8FF9F000098
:1008E000368D00002DE9F0418046D21D22F007022E
:1008F0000025D2E90002F52915A614D0011E72F1D7
:10090000000106DA0023D0EB030063EB020211A61C
:1009100008E0D8F800108B0701D50FA602E04907C0
:1009200001D50EA601251146002408F1240704E094
:1009300000F0B3F930323A55641C50EA0102F7D1A5
:100940002B46324621464046BDE8F04100F0EAB968
:10095000000000002D0000002B000000200000001F
:1009600030B4002100F1240408E002F00705D208A9
:10097000303542EA4372DB086554491C52EA0305EC
:10098000F3D10468002310A2250708D504F0200441
:100990000C4304D0C46901230CA2641EC46130BCA2
:1009A00000F0C0B910B5044621461068FFF794FE68
:1009B00002462046BDE810400023D1E7D21D22F0B8
:1009C0000701D1E90023CBE7000000003000000060
:1009D000F0B40D460188090502D5214C7C4402E0A3
:1009E0001F4C7C440E34002100F1240608E002F084
:1009F0000F071209E75D42EA03721B097754491C8D
:100A000052EA0307F3D102780023120704D5702DB0
:100A100006D009B1022311342246F0BC00F082B99D
:100A200001231034F8E770B504460D4621461068DE
:100A3000FFF752FE024629462046BDE870400023DB
:100A4000C6E7D21D22F00703D3E90023C0E70368FD
:100A5000126843F0200303600823C3610023B7E753
:100A6000988B00002DE9F05F894604464FF0000A9C
:100A7000DFF874B1FB44C0F820A02046E168884745
:100A8000002874D0252806D0D4E901219047206A97
:100A9000401C2062F1E700265F462046E168884757
:100AA0002028054607DB312D05D2781910F8200CD7
:100AB00008B10643F1E7B00701D526F00406C4F8F3
:100AC0001CA00027C4F818A02A2D09D0284603F03E
:100AD00005F838B304EB8708303DC8F8185019E022
:100AE00059F8041B204604EB87029161E1688847AE
:100AF000012F054618D1E069002820DA26F02006EB
:100B00001DE0D8F8180000EB800005EB40003038FD
:100B1000C8F818002046E1688847054602F0DEFF65
:100B20000028EED1012F0AD02E2D08D12046E168F1
:100B300088477F1C0546022F46F02006C4DBA069CB
:100B4000002803DA404246F00106A061F00701D018
:100B500026F010066C2D0BD0682D09D04C2D39D005
:100B60006A2D35D0742D35D07A2D33D016E038E08B
:100B7000E1682F4620468847B842054609D16C2FC8
:100B800026D04FF48060E16806432046884705463A
:100B900004E06C2F1AD04FF4807006430DB3A5F11A
:100BA0004100192802D8203546F400664A462946F5
:100BB000204626604E46FFF725FB80B101280BD06A
:100BC000F61D26F0070000F1080956E74020E4E78B
:100BD0008020D8E70020D6E706F104094DE7284633
:100BE00052E7206ABDE8F09F288B000010B5203A3C
:100BF000C0F00B80B1E81850203AA0E81850B1E8D6
:100C00001850A0E81850BFF4F5AF5FEA027C24BF8B
:100C1000B1E81850A0E8185044BF18C918C0BDE882
:100C200010405FEA827C24BF51F8043B40F8043B4B
:100C300008BF7047D20728BF31F8023B48BF11F800
:100C4000012B28BF20F8023B48BF00F8012B70475A
:100C50000048704704B3002000210160C0E9011082
:100C6000704710207047034640688C46002818BF24
:100C700088423CBF03464068F8D31868184488424D
:100C800007D00CF1030020F00700001D411A521A92
:100C90000146081D0A60FFF757BB30B5B0F10A02E4
:100CA0004FEA900E71F100034EEA817EB0EB0E0028
:100CB00061EB91014FEA101E4EEA017E10EB0E002F
:100CC00041EB11114FEA102E4EEA016E10EB0E00AF
:100CD00041EB11214FEA104E4EEA014E10EB0E008F
:100CE00041EB1141401841F100014FEAD00040EAC8
:100CF00041704FEAD10110EB80054FEA810444EACC
:100D0000907444EB01046D1944EB0404521BA3419D
:100D10004FF0000348BF0A3200D530BD401C41F1FE
:100D2000000130BD2DE9F0470D4699469246044634
:100D300000F124080168880604D5E06921F010015B
:100D4000216000E00120A84201DD471B00E00027F0
:100D5000A1697A1902EB0900081AA0612078C0067F
:100D600002D42046FFF788FC002608E0D4E90121E0
:100D70001AF806009047206A401C761C20624E45F7
:100D8000F4DB2078C0060AD52046FFF775FC06E0A4
:100D9000D4E9012130209047206A401C2062381E8F
:100DA000A7F10107F4DC07E0D4E9012118F80500F8
:100DB0009047206A401C2062281EA5F10105F3DC43
:100DC0002046FFF76FFC2078000602D50220BDE820
:100DD000F0870120FBE770472DE9FF4F0C461E46C8
:100DE0004FF0FF378BB0D2E90001DDF860800A9048
:100DF0008A46C1F30A5505B93D46002108464FF021
:100E00000000BAF1000F00F4400005DA00EB8000AA
:100E10004FF4400101EA50004FEA9059B9F1010F37
:100E200000DDB9460A9850EA4A000ED044F6105048
:100E3000A5F2FF3545432F14B8F1000F1ED07542BF
:100E4000291E1EDDC9F100021CE0B8F1010F4FF0B0
:100E5000000001D0302103E0F24305E02154401CA2
:100E6000B042FBDB30460022002121540B99C1F82F
:100E70000880C1E900200FB0BDE8F08FBD1B6D1CDC
:100E8000DEE74A4600DA694206A800F075FA06ABCA
:100E900093E8070003AB83E8070050460A9900F087
:100EA00074FB8DE80700A0F500501F3800900398F0
:100EB000002D09DD42F21F014A46084403A90390B0
:100EC000684600F0D3FD08E0A0F500504A461F3800
:100ED00003A90390684600F0DDFD8DE807000004DB
:100EE000000C03D04FF0FF30410800E01046B8F18D
:100EF000000F03D00022009215461EE0751E05D497
:100F0000FFF7CBFE303262556D1EF9D5B346012294
:100F1000084302D000227F1C04E02078302801D151
:100F200000227F1E002A099786D01DE0112D07DAC6
:100F3000FFF7B3FE303262556D1C50EA0102F5D165
:100F4000084302D00098C8B10EE00021681E05E0F9
:100F5000235C625C63542254401E491C8142F7DBCF
:100F6000AB46A81B401E0990002004F80B000B980C
:100F7000099AC0F80880C0E9002B7CE711264FF0E1
:100F8000000859E72DE9F04F88460446D21D22F0AB
:100F9000070191B0D1E90001CDE90A0102F08AFD13
:100FA00002460B98C00F01D02D2007E02068810772
:100FB00001D52B2002E0202101EAC000032A09907C
:100FC00001D0072A05DB03464146204600F094F98C
:100FD0000BE12078800601D5E06900E00620B8F139
:100FE000650F814606D0B8F1660F18D0B8F1670FCB
:100FF00070D131E00020B9F1110F009001DB112315
:1010000001E009F101030AAA01A90CA8FFF7E4FE17
:10101000DDE90C70002609F10105834647E0012057
:101020004B4600904FF000470AAA01A90CA8FFF711
:10103000D3FEDDE90DB00C995D46002610B909F12B
:1010400001000D18B9EB050003D4C0F1FF3609F11A
:101050000105A5EB09002BE0B9F1010F01DA4FF012
:1010600001090020B9F1110F0090484601DD11235C
:1010700000E003460AAA01A90CA8FFF7ADFEDDE9CE
:101080000C704D4600268346207800070AD4AB45F5
:1010900000DA5D4601A8012D04DD411911F8011C9B
:1010A000302907D04F4502DA17F1040F04DA012086
:1010B00082460FE06D1EEEE7002F02DCED1B3E4482
:1010C00003E0781CA84200DD7D1CB81B00F1010A7A
:1010D0004FF000472078000703D4AA4501DB4FF00A
:1010E000FF3A0021B7F1004F0DF143088DF843108E
:1010F00024D002202B23002F01DA7F422D230A2146
:10110000021EA0F1010000DC5FB197FBF1FC97FB30
:10111000F1F201FB1C7C17460CF1300C08F801CDF4
:10112000EEE7A8F1010003702188090501D54521EA
:1011300000E06521A0F1010800F8011C09980FA941
:10114000A1EB0807FF1D00B10120411901EBEA7076
:10115000A1693844081A401EA0612078C00602D454
:101160002046FFF789FA099828B1D4E90121904770
:10117000206A401C20622078C00622D52046FFF756
:101180007BFA1EE0002E04DBB34502DD01A8805D82
:1011900000E03020D4E901219047206A401C206201
:1011A000761CAAF101005FEA000A0AD100F0A0F85B
:1011B000C0680168405CD4E901219047206A401C66
:1011C0002062281EA5F10105DCDC07E0D4E901213D
:1011D00018F8010B9047206A401C2062381EA7F1C6
:1011E0000107F3DC2046FFF75DFA032011B043E668
:1011F00010B5436913B1AFF3008001E0FFF775FA52
:10120000012010BD127800F124010A7000224A70FA
:101210000122EDE711684FF0FF32E9E710B54369AD
:1012200013B1AFF3008001E0FFF7FEFA012010BD1B
:10123000128800F1240182840022C2840122EDE799
:1012400011684FF0FF32E9E770B516460C460546C7
:1012500000F046F8036893F80101012806D0FF2C3E
:101260000FD8185D68B101202C7070BDD3F807014C
:101270003246214603F2071303442846BDE8704076
:1012800018474FF0FF3070BD10B500F0EFF8BDE823
:10129000104000F0E5B87546FFF7DAFCAE460500F1
:1012A0006946534620F00700854618B020B5FFF781
:1012B00025F8BDE820404FF000064FF000074FF042
:1012C00000084FF0000B21F00701AC46ACE8C00964
:1012D000ACE8C009ACE8C009ACE8C0098D4670476D
:1012E00010B500F005F8001D10BD00BFC981000059
:1012F0000048704724B300202DE9F0411F46044602
:1013000003260168072A01F4006004DB08B116A572
:1013100005E016A503E008B115A500E015A521F02C
:1013200010002060A069C01EA0610FB1401EA06126
:101330002046FFF7A1F94FB1D4E901213846904783
:10134000206A401C2062C01C206206E0206AFAE786
:10135000D4E9012115F8010B9047761EF8D22046FA
:10136000FFF7A0F9BDE8F0814E414E006E616E00BE
:10137000494E4600696E66002DE9F04781461646E3
:101380008AB0334878440DC88DE80D003048784461
:10139000801C03AC0DC884E80D0041F69B30084466
:1013A000372190FBF1F290FBF1F5A5F1800501FBEF
:1013B00012041B3C02D56442012000E00020DFF84B
:1013C00090A080460027FA44AAF1BE0A0DE0E0078B
:1013D00009D03246684607EB47010AEB810100F06D
:1013E00059FB8DE8070064107F1C002CEFD1184FCB
:1013F0007F44AC3F18E0E80714D007EB04100DF170
:10140000180A90E80E008AE80E00C068F04201D188
:1014100098190890324606A903A800F03BFB03ABDD
:1014200083E807006D10641C002DE4D13246694644
:10143000B8F1000F03A802D000F018FB01E000F0A3
:1014400029FBC9E90001C9F808200AB0BDE8F08706
:10145000A88200000446AFF300802046FEF739FF63
:10146000002801D000F02AB87047000010B501280C
:1014700005D0002103A000F028F8012010BD09A12B
:10148000F8E7000053494752544D454D3A204F75F7
:1014900074206F662068656170206D656D6F72796C
:1014A000000000003A2048656170206D656D6F7224
:1014B0007920636F72727570746564000149182039
:1014C000ABBEFEE726000200704770B505460C462D
:1014D0000A2000E06D1C00F051F835B12878002892
:1014E000F8D102E0641C00F049F814B1207800281B
:1014F000F8D1BDE870400A2000F040B84FF0013C40
:1015000050F8042B51F8043B9A4221D1A2EB0C0372
:10151000934313EACC1317D150F8042B51F8043B32
:101520009A4215D1A2EB0C03934313EACC130BD1CF
:1015300050F8042B51F8043B9A4209D1A2EB0C035A
:10154000934313EACC13DBD04FF00000704700BF89
:10155000D01A01BAB1FA81F101F0180122FA01F0B2
:10156000CB40C1F12001DBB2C0B2C01A2CFA01F3AA
:10157000D11A914311EAC311E6D1704708B5694603
:101580008DF800000320ABBE08BD5FEA400C08BF29
:1015900091F0000F4FEA8C234FEAC12243EA5151E8
:1015A0004FEA1C5018BF00F5F0404FEA300018BF5A
:1015B00041F000415FEA6C5C00F02980BCF1FF3F24
:1015C00008BF40F080407047130C06BF12044FF074
:1015D000100C4FF0000C130E04BF12020CF1080C9B
:1015E000130F04BF12010CF1040C930F04BF9200FF
:1015F0000CF1020CD30F04BF52000CF1010C114688
:101600004FF00002A0F11F00A0EB0C00704711F09A
:10161000004F08BF704731F000413FF4D5AF0B0CCD
:1016200006BF09044FF0100C4FF0000C0B0E04BF66
:1016300009020CF1080C0B0F04BF09010CF1040C9A
:101640008B0F04BF89000CF1020CCB0F04BF4900C3
:101650000CF1010CCCF12003A0EB0C0022FA03F3F7
:1016600002FA0CF241EA030100F10100704720F098
:101670007F4C80EA030023F07F47ACEB070303F5C0
:101680007C5300F0004003F1FF032DE980494FEA4D
:10169000154B09B44FEA144325EA0B4E24EA0348DC
:1016A0000FF2042606EB132749083E785FEA320260
:1016B00003FB0667C7F5000707FB06F64FEA54373A
:1016C0004FEAD64606F1020607FB066CCCF1005C39
:1016D0004FEA1C472CEA074C07FB06F40CFB06F507
:1016E00004EB15464FEA961634BF00204FF0004039
:1016F0004FEAD13706FB07FC4FEA1C4C0CFB0BF7FB
:10170000D21B03FB0CF761EB07010CFB0EF7B0EBF0
:10171000074072EB17420CFB08F734BFA2EB0742FD
:10172000B2EB074261EB17414FEA0C444FEA9107D5
:1017300006FB07FC4FEA1C4C0CFB0BF7B0EBC74059
:1017400072EB573203FB0CF734BFA2EBC742B2EB8C
:10175000C74261EB57310CFB0EF7B0EBC70072EBE1
:1017600057720CFB08F734BFA2EBC702B2EBC702FB
:1017700061EB5771039F4FEA816141EA921104EBDB
:10178000CC044FEAD1374FEA826206FB07FC42EAFB
:1017900090124FEA80604FEA1C4C0CFB0BF7D21BF7
:1017A00003FB0CF761EB07010CFB0EF7B0EB0740F6
:1017B00072EB17420CFB08F734BFA2EB0742B2EB07
:1017C000074261EB17414FEA8C554FEA910704EB52
:1017D0009C2406FB07FC4FEA1C4C0CFB0BF7B0EB00
:1017E000C74072EB573203FB0CF734BFA2EBC74282
:1017F000B2EBC74261EB57310CFB0EF7B0EBC70001
:1018000072EB57720CFB08F734BFA2EBC702B2EBC6
:10181000C70261EB577115EB4C254FEA816141EA34
:1018200092114FEA82624FEAD13742EA901206FBE8
:1018300007FC44F100044FEA80604FEA1C4C0CFBAB
:101840000BF7D21B03FB0CF761EB07010CFB0EF748
:10185000B0EB074072EB17420CFB08F734BFA2EB6A
:101860000742B2EB074261EB174115EB1C154FEA3B
:10187000813141EA92414FEA823242EA90424FEA94
:1018800080304FEA0C7644F1000448EA03434EEA04
:101890000B484FF0000EB2EB080C71EB030724BFAE
:1018A000624639464EEB0E0E4FF0000B00185241C7
:1018B00049414BEB0B0BB2EB080C71EB03077BF1CF
:1018C000000B24BF624639464EEB0E0E4FF0000B64
:1018D0000018524149414BEB0B0BB2EB080C71EB7A
:1018E00003077BF1000B24BF624639464EEB0E0E18
:1018F00051EA020718BF46F0010616EB0E7655F1C5
:10190000000254F1000103D5BDE88901BDE800885B
:10191000BDE88901BDE80048B619524141EB01011B
:10192000A3F10103704780807F7E7D7C7B7A79788C
:10193000777676757473727171706F6E6E6D6C6C94
:101940006B6A6A6968686766666564646363626136
:101950006160605F5F5E5E5D5D5C5C5B5B5A5A59B7
:101960005958585757565655555554545353525223
:101970005251515050504F4F4F4E4E4D4D4D4C4C7B
:101980004C4B4B4B4A4A4A494949484848474747C4
:101990004746464645454544444444434343434201
:1019A000424242414141002B26D4770021D01CB550
:1019B0004FEA370703B44FF010004FF010014FF01B
:1019C00000000FBCBDE810400BF1010BBBF1010F93
:1019D00008BF5FEA170722BF12F1010211F10101EE
:1019E0004FF0004143F1000300F0004043EA0000E3
:1019F0007047F9D35708DAE746EA064613F1400F75
:101A00004FEA16461FDD13F1200FDFBF16430A46CB
:101A1000002120335B42C8D0C3F1200746EA0646C6
:101A200002FA07F74FEA164646EA0706C3F120070F
:101A300022FA03F201FA07F721FA03F14FF000034B
:101A400042EA0702B1E746EA020646EA06464FEADC
:101A5000164646EA0106BCBF46EA0646360C4FF07B
:101A600000034FF000024FF000019EE72DE9C0484F
:101A7000934630B491E8380007C831EA400C48BFBB
:101A800034EA430C03D5FFF7F2FDFFF78CFFF0BCFF
:101A9000BDE800882DE9C048934630B491E838008D
:101AA00007C810F0804F08BF13F0804F03D100F03B
:101AB00005F8FFF778FFF0BCBDE8008820F07F470D
:101AC00080EA030023F07F4C07EB0C03A3F57C5363
:101AD00000F00040A3F1FE0392F0000F00F0B3808D
:101AE00095F0000F00F077802DE901494FEA114091
:101AF0004FEA144621EA004800FB06FC24EA0647A8
:101B000008FB06F607FB08F800FB07F718EB06488A
:101B10004CEB164C4FEA124B18EB07484FEA1546B0
:101B20004CEB174022EA0B4E0BFB06FC25EA06475E
:101B30000EFB06F607FB0EFE0BFB07F71EEB064E31
:101B40004CEB164C4FF000061EEB074E4CEB174BC0
:101B500018EB0B0840F1000018EB0E0B58EB0008D7
:101B600040F100008F1A4FF000013CBFC943661BD3
:101B700014BFB5EB040C00213CBFC943F61B4FEA70
:101B800017444EEA8E0E27EA04454FEA1C4704FB31
:101B900007622CEA074C05FB07F70CFB05F604FB74
:101BA0000CFC16EB074642EB174216EB0C4642EBD9
:101BB0001C421BEB060658EB0202414146EA9E0618
:101BC00001D5BDE80189B619524141EB0101A3F1EC
:101BD0000103BDE801894FEA14454FEA114724EAA1
:101BE000054621EA074C05FB07F406FB07F70CFB4B
:101BF00006F105FB0CFC11EB074144EB17444FEADF
:101C0000124711EB0C4144EB1C4422EA074C05FB44
:101C100007F206FB07F70CFB06F605FB0CFC16EBC0
:101C2000074642EB174216EB0C4642EB1C456A187E
:101C300054F1000148BF7047B619524141EB010110
:101C4000A3F10103704795F0000F37D04FEA11421E
:101C50004FEA144721EA024624EA074C02FB07F147
:101C600006FB07F70CFB06F402FB0CFC14EB074425
:101C700041EB17414FEA154714EB0C4441EB1C4173
:101C800025EA074C02FB07F506FB07F70CFB06F6F7
:101C900002FB0CFC16EB074645EB174516EB0C4612
:101CA00045EB1C42121951F1000148BF7047B619AB
:101CB000524141EB0101A3F1010370474FEA144582
:101CC0004FEA114724EA054621EA074C05FB07F1D4
:101CD00006FB07F70CFB06F24FF0000605FB0CFCB9
:101CE00012EB074241EB174112EB0C4251EB1C4146
:101CF00048BF7047921841EB0101A3F101037047FF
:101D000000BFFEE72DE9F04100201949087019488D
:101D1000046811E002F052FC618B88420BD102F0A2
:101D200047FCA18B884206D113A004F06BFA012076
:101D30000F49087002E0E468002CEBD100BF0C48AA
:101D4000007898B912A004F05DFA1548006800F018
:101D500029F802F02DFC054602F026FC064602F0AA
:101D60002DFC07462A46314601F0DAF8BDE8F0813D
:101D7000BC000020100100206E6F206E656564209D
:101D8000746F207265636F6E6E6563740A00000085
:101D90007265636F6E6E656374696E670A0000003A
:101DA000C000002010B50446204604F067FB002167
:101DB000204604F0CDFB0021204606F0F5FB002173
:101DC000204606F06BFD0021204604F0C5FE0022EF
:101DD0001146204605F05EFD10BD000010B54FF421
:101DE000001000F0E7F8012804D10349087040050D
:101DF00000F01CF810BD00002600002010B54FF0C8
:101E0000007000F0D7F801280AD1002005490870B9
:101E10004FF0007000F00AF80021034800F014F8B9
:101E200010BD0000240000208000024000F080511E
:101E300011B10349086001E00249486070470000A1
:101E4000040402400000024021B1026842F0010295
:101E5000026004E002684FF6FE731A4002607047A9
:101E600001684FF6FE72114001600021016041607F
:101E70008160C1604B49884208D14A4908394968A4
:101E800041F00F01474A083A51608AE04549143150
:101E9000884208D143490839496841F0F001414A74
:101EA000083A51607DE03F492831884208D13D49D8
:101EB0000839496841F470613A4A083A516070E063
:101EC00038493C31884208D136490839496841F4DB
:101ED0007041344A083A516063E0324950318842D7
:101EE00008D130490839496841F470212D4A083A2F
:101EF000516056E02B496431884208D1294908399C
:101F0000496841F47001274A083A516049E025497F
:101F10007831884208D123490839496841F0706115
:101F2000204A083A51603CE01F49884206D1011F0F
:101F3000096841F00F01021F116032E01A491431A3
:101F4000884208D11849091F096841F0F001164A72
:101F5000121F116025E014492831884208D1124926
:101F6000091F096841F470610F4A121F116018E0DF
:101F70000D493C31884208D10B49091F096841F4D9
:101F80007041094A121F11600BE007495031884225
:101F900007D10549091F096841F47021024A121F3F
:101FA000116070470800024008040240014648687A
:101FB00080B2704701460020002201F0805313B127
:101FC000054B1A6801E0054B1A6802EA01030BB1E0
:101FD000012000E0002070470004024000000240A1
:101FE0001AB103680B43036002E003688B4303608C
:101FF000704710B50022026847F6F0739A430C6AE6
:102000008B6823430C6923434C6923438C69234326
:10201000CC6923434C6A23438C6A23431A430260EE
:10202000CB6843600B6883604B68C36010BD70472A
:1020300010B54FF4E041024800F092FD10BD0000E1
:1020400000140140014948617047000000900240BF
:1020500029B1064AD2690243044BDA6104E0034A1B
:10206000D2698243014BDA61704700000090024060
:1020700030B10749896941F00201054A916105E0E3
:102080000349896921F00201014A9161704700000A
:102090000090024030B50C4613460021104D2860D8
:1020A00000BF18E000EB01124FF00045156044F24C
:1020B000F0555560C1EB411505EB811504EB051595
:1020C00095605D1E8D4204D900EB01151035D56079
:1020D00000E0D060491C9942E4D3024DE86030BD75
:1020E000180000200090024021B1426822F0004216
:1020F000426003E0426842F00042426070470000E4
:1021000030B10749896941F40051054A916105E000
:102110000349896921F40051014A91617047000027
:102120000090024030B50C46134600210F4D286048
:1021300000BF15E000EB01124FF480151560C1EBF4
:10214000411505EB811504EB051595605D1E8D426B
:1021500004D900EB01151035D56000E0D060491CB2
:102160009942E7D3024D286130BD000014000020E1
:102170000090024002680A430260704710B50121D6
:10218000880300F0DFFF00214FF4804000F0DAFF09
:1021900010BD01B581B0002000900198009002E0D0
:1021A0000098401E009000980028F9D10CBD000056
:1021B0000348806940F4801001498861704700003D
:1021C00000900240014800688068704714000020B9
:1021D00001460868C0F30D407047000000B50022BA
:1021E0000F480068006800F00040B0B90C48006873
:1021F000008800F4004080B909480068008800F4B5
:10220000807050B106480068008800F4007020B16A
:1022100003480068FFF7DCFF0246104600BD0000DF
:102220001800002000200449096801F0010109B1EB
:10223000012000E0002070470090024010B501E04E
:1022400000F0D8FEFFF7CAFF0028F9D14020FFF7C1
:10225000F9FE4FF48030FFF7F5FE10BD2DE9F04197
:1022600088B004460F464FF0000800250020079074
:102270008A4E01908A48056925F01C0502A800F0E5
:1022800091FF039E8748864205D38748864202D243
:1022900045F0080509E08448864205D37F48864218
:1022A00002D245F00C0500E000BF7D4805614FF407
:1022B00000420021384600F065FA18B9002008B045
:1022C000BDE8F0817948FFF764FF206800284ED010
:1022D00000BF0198401C01900121384600F02EF902
:1022E00000F0040018B9724901988842F1D370498E
:1022F0000198884201D10020E1E7002001904FF4CD
:1023000080520021384600F03DFA08B90020D6E797
:1023100000BF0198401C01900121384600F00EF9E1
:1023200000F0200018B9624901988842F1D3604951
:102330000198884201D10020C1E7002001901021BE
:10234000384600F0FBF8804608F0040018B14FF45E
:102350000060206201E00020206208F0020010B15D
:102360000020606116E04FF48040606112E0206A56
:10237000C0F3CF006169C1F34F0140EA01020021BF
:10238000384600F0FFF908B9002098E76FF07F4069
:10239000FFF7FFFE4248056846480540D4E90101C1
:1023A0000843E16808432169084361690843A1695A
:1023B0000843E1690843216A0843616A0843A16A46
:1023C0000843E16A0843216B0843616B08430543F6
:1023D00033480560D4E90E010843216C0843616C61
:1023E0000843A16C0843E16C0843216D0843616D0B
:1023F00008432B494860A06D8860E06DC8600846BE
:1024000085694FF641700540B4F86010606E40EA8F
:102410000140A16E0843E16E0843216F0843616FDC
:10242000084305431E488561D4E91E0108431C4941
:10243000C8612148856921480540D4E92001084345
:10244000D4F888100843D4F88C100843D4F89010BE
:102450000843D4F894100843D4F898100843D4F8EB
:102460009C100843D4F8A010084305431248856126
:10247000D4E929010843D4F8AC100843D4F8B010CB
:102480000843D4F8B41040EA8100D4F8B8100843E7
:1024900040F4000008490860012010E7008793031A
:1024A00000800240002D3101C00E1602FFFF0F0018
:1024B000FFFF04000F8120FF00900240233FDEF861
:1024C00010B50B794C7943EA0422094B03441A6492
:1024D000CB781B068C7843EA04434C7843EA042308
:1024E0000C7843EA0402024B03445A6410BD000016
:1024F0000080024030B10749096841F00401054AF3
:10250000116005E00349096821F00401014A1160E6
:10251000704700000080024030B10749096841F06F
:102520000801054A116005E00349096821F0080126
:10253000014A1160704700000080024018B5024651
:102540000B460021002000901548016901F01C0194
:102550004FF4784000EAC22001434FF4F86000EAEB
:102560008310014321F0020141F001010C48016197
:1025700000BF0098401C00900948016901F001006B
:1025800018B1084C0098A042F3D3064C0098A04222
:1025900001D1002018BD0248406980B2FAE700006E
:1025A00000800240FFFF04001EB5002100220092BF
:1025B00001920292214A1268126802F0004282B12E
:1025C000002200921E4A526902F0800222B180224B
:1025D0001B4B5A6100229A609DE81C0080E81C0099
:1025E0001EBD164A1268128802F40042B2B9134A9C
:1025F0001268128802F4807282B1104A126812883E
:1026000002F4007252B10D4A12681268C2F30D4210
:10261000111F0A4A12689268019200E0002100919D
:10262000064A12680292054A1268D268034B1A6081
:102630009DE81C0080E81C0000BFD1E718000020C6
:10264000009002400348006840F001000149086022
:10265000704700000090024000B50120FFF75CFFCA
:10266000FFF7A6FD0120FFF745FF0120FFF748FD1A
:102670000120FFF7FDFC00BD002101604160816089
:10268000C160016141618161C16101624162816238
:10269000C162016341638163C16340210164202100
:1026A000416400218164C164016541658165C16542
:1026B00001668021416600218166C166016741672C
:1026C0008167C1674FF08061C0F880104910C0F881
:1026D00084104910C0F88810C910C0F88C1000216F
:1026E000C0F89010C0F89410C0F89810C0F89C1072
:1026F000C0F8A0104FF00071C0F8A4100021C0F87D
:10270000A8104FF40031C0F8AC104912C0F8B01056
:102710000021C0F8B410C0F8B8107047014617483F
:102720000068006800F0004008B100207047C1F365
:102730000C00124A1268506010480068006840F0AF
:1027400040500E4A126810600C480068006840F063
:1027500000400A4A126810600948406900F004000D
:1027600020B10420064A50610020506003480068F0
:10277000C068024A10600120D8E700001400002061
:102780000090024038B503460C460021002000901E
:102790001448016901F01C014FF4784000EAC3209D
:1027A00001434FF4F86000EA8410014341F0020154
:1027B00041F001010B484261016100BF0098401CDB
:1027C00000900848016901F0010018B1064D009819
:1027D000A842F3D3044D0098A84201D1002038BD8F
:1027E0000120FCE700800240FFFF040000B5AFB00D
:1027F00001214FF4E03000F095FC012000F0D6F804
:102800004FF4004000F0C0FD012000F0B7FD00BF14
:102810003D2000F08FFD0028FAD00B2000F0A8FD2D
:10282000FFF7ACFCFFF70EFF00BFFFF7FBFC012832
:10283000FBD06846FFF720FF0120009000200790A2
:102840004FF400700A9000200B900E90119013909E
:10285000149015904FF480600990002020904FF064
:1028600000702190001123900020259026900420D4
:102870002890C005299040122A9080012B90401288
:102880002C9040002E9001216846FFF7E7FC0121C3
:102890000248FFF7DDFB2FB000BD00004000010043
:1028A00008B50121084600F06DFC0121042000F06C
:1028B00069FC0121082000F065FC0121102000F0D6
:1028C00061FC0121202000F05DFC0121402000F08E
:1028D00059FC0420ADF8000003208DF802001820F8
:1028E0008DF8030069462D4800F066F80220ADF827
:1028F000000003208DF8020018208DF803006946BF
:10290000274800F059F84FF46050ADF8000003205C
:102910008DF8020018208DF803006946214800F068
:102920004BF801214FF0201000F0D2F80320ADF851
:1029300000008DF8020004208DF803006946174856
:1029400000F03AF84FF48060ADF8000003208DF8F5
:10295000020004208DF803006946124800F02CF8AC
:102960004FF4E060ADF8000003208DF80200042071
:102970008DF8030069460C4800F01EF84FF4807093
:10298000ADF8000003208DF8020018208DF8030038
:102990006946024800F010F808BD00000008014038
:1029A00000100140000C0140001401400149086082
:1029B00070470000DC0020422DE9F041024600256E
:1029C0000026002000230024002791F803C00CF00B
:1029D0000F0591F803C00CF0100CBCF1000F03D0F0
:1029E00091F802C04CEA050591F800C0BCF1000F57
:1029F00031D0146800202BE04FF0010C0CFA00F3EA
:102A0000B1F800C00CEA03069E4220D183004FF0CB
:102A10000F0C0CFA03F7BC4305FA03FC4CEA040460
:102A200091F803C0BCF1280F06D14FF0010C0CFA4D
:102A300000FCC2F814C00AE091F803C0BCF1480FD2
:102A400005D14FF0010C0CFA00FCC2F810C0401C7C
:102A50000828D1D31460B1F800C0BCF1FF0F34DDF9
:102A6000546800202EE000F1080C4FF0010808FA2D
:102A70000CF3B1F800C00CEA03069E4221D183009A
:102A80004FF00F0C0CFA03F7BC4305FA03FC4CEAB9
:102A9000040491F803C0BCF1280F05D100F1080C23
:102AA00008FA0CF8C2F8148091F803C0BCF1480F82
:102AB00007D100F1080C4FF0010808FA0CF8C2F831
:102AC0001080401C0828CED35460BDE8F08100007F
:102AD000F0B50A46002300240021002500F000463E
:102AE000B6F1004F02D11D4EF16901E01B4E716835
:102AF000C0F3034583B200F44016B6F5401F08D179
:102B000021F07061154E766826F07066134F7E6076
:102B100012E000F48016B6F5801F06D1032606FAEF
:102B200005F4A14341F0706106E0460D360103FA59
:102B300006F6B14341F0706122B1460D360103FA49
:102B400006F6314300F00046B6F1004F02D1034EC5
:102B5000F16101E0014E7160F0BD00000000014034
:102B60000161704710B501F02FFD012804D100204C
:102B700003F0BAFB06F0D0F801F0F0FC012804D114
:102B8000002003F093FB01F0B9FB01F0F3FC0128F6
:102B900004D1002003F096FBFFF7B4F810BD00BF8E
:102BA000FEE710B500F0C0F800F062F800F004F89D
:102BB00000F08AF810BD000000B58BB00121084676
:102BC00000F0B0FA264800902648019000200290BC
:102BD0003220039000200490802005900020069071
:102BE000079008904FF40050099000200A90694621
:102BF0001D48FFF7FEF901211B48FFF725F90122C7
:102C000002211948FFF7ECF917481430FFF728F9AB
:102C10001348009015480190102002906420039002
:102C200000200490802005900020069007900890D6
:102C30004FF40050099000200A9069460A48143069
:102C4000FFF7D7F90122022107481430FFF7C8F92E
:102C5000012105481430FFF7F7F80BB000BD000064
:102C600004440040BC0100206C00024058010020D8
:102C700008B526208DF8000003208DF801008DF89E
:102C8000020001208DF80300684600F0D9F91120F8
:102C90008DF8000003208DF801008DF8020001205E
:102CA0008DF80300684600F0CBF910208DF8000085
:102CB00003208DF801008DF8020001208DF803003B
:102CC000684600F0BDF908BD1FB5684600F0E4FE97
:102CD0004FF4E13000900020ADF80400ADF806009C
:102CE000ADF808000C20ADF80A000020ADF80C008B
:102CF00069460C4800F064FE012240F22441094874
:102D000000F039FE01224021064800F001FE0122B8
:102D10008021044800F0FCFD0121024800F0ECFD98
:102D20001FBD00000044004008B50121202000F034
:102D300029FA0121084600F025FA0121480400F093
:102D400011FA01210820FFF7C3FE2020ADF8000092
:102D500018208DF8030003208DF80200694607480B
:102D6000FFF72AFE4020ADF8000004208DF8030094
:102D700069460248FFF720FE08BD0000001401402C
:102D800010B5FFF78DFD00F040F9FFF72FFD10BDE6
:102D900008B50121202000F0F5F94FF4E040ADF82E
:102DA000000003208DF8020010208DF80300694612
:102DB0000248FFF701FEFFF73BF908BD0014014090
:102DC00000B587B002F016FC02F090FD02F061FB46
:102DD0003148C07801063048807841EA00412E48E9
:102DE000407841EA00202C490978084306902B4896
:102DF000C07801062948807841EA00412748407898
:102E000041EA002025490978084305902448C07804
:102E100001062348807841EA00412148407841EA90
:102E200000201F490978084304901B48C07800908F
:102E300019488378427801781AA003F0E3F917481B
:102E4000C078009015488378427801781EA003F07E
:102E5000D9F91348C07800901148837842780178F6
:102E600022A003F0CFF92A490020FFF729FB2948C7
:102E70002949002204ABCDE90021029005AA06A948
:102E8000264802F083FD254802F0D0FD234802F0D9
:102E90001BFE07B000BD0000960000209A00002035
:102EA0009E000020BFAAB7A2B0E5BEB2CCAC49508C
:102EB000B5D8D6B7A3BA202025642E25642E256464
:102EC0002E25640D0A000000BFAAB7A2B0E5D7D333
:102ED000CDF8D1DAC2EBB5D8D6B7A3BA25642E2582
:102EE000642E25642E25640D0A000000BFAAB7A237
:102EF000B0E5CDF8B9D8B5D8D6B7A3BA20202020F0
:102F000025642E25642E25642E25640D0A000000FC
:102F10002C0000204D44000809450008F001002065
:102F2000F8B505460C461646E0780106A07841EA59
:102F30000041607841EA002021780843009004F0C5
:102F4000BFF9084908602A4607490648006803F0A7
:102F500001FB064B324669460248006803F040FC1C
:102F6000F8BD0000C0000020F09400080131000806
:102F700010B500F003F800F023F810BD0EB50121E4
:102F8000022000F0EFF86320ADF8040041F61F4086
:102F9000ADF800000020ADF80600ADF8020069466B
:102FA000064800F03FFC01221146044800F030FCC6
:102FB0000121024800F00FFC0EBD0000000400409B
:102FC00008B51D208DF8000001208DF801000320B8
:102FD0008DF8020001208DF80300684600F030F8FB
:102FE00008BD10B5FFF7C4FF10BD10B5FFF7D9FD40
:102FF00010BD000010B5024801F09AFA10BD0000A3
:10300000F001002000BFFEE7704708B500214FF037
:10301000006000F057F84FF4A06000F049F83D2040
:103020008DF8000002208DF8010000208DF80200CC
:1030300001208DF80300684600F002F808BD00008A
:1030400070B5002100230F22C47804B3154C246806
:1030500004F4E064C4F5E064210AC1F10403CA4049
:10306000447804FA03F184781440214309010E4C9A
:103070000678A155047804F01F050124AC400578BA
:103080006D11AD0005F1E025C5F8004109E00478B7
:1030900004F01F050124AC40044D0678761145F874
:1030A000264070BD0CED00E000E400E080E100E0AF
:1030B00002490143024A1160704700000000FA050E
:1030C0000CED00E0024A0A400243024B1A607047CE
:1030D00080FFFF1F08ED00E070B504462046FDF7B5
:1030E000A1F9C5B22A462146002000F041FA204647
:1030F000FDF798F985B22946204600F01FFA70BD09
:1031000070B505460C461646207A40F0080020723D
:103110000249204605F048FA002070BD1B34000823
:103120007047000029B1064A52690243044B5A61B4
:1031300004E0034A52698243014B5A617047000020
:103140000010024029B1064A926A0243044B9A6277
:1031500004E0034A926A8243014B9A62704700007E
:103160000010024029B1064AD2690243044BDA61D9
:1031700004E0034AD2698243014BDA6170470000E0
:103180000010024029B1064A92690243044B9A6139
:1031900004E0034A92698243014B9A617047000040
:1031A000001002402DE9F0410021002200250023FB
:1031B0000026002400278C46DFF86081D8F80480C0
:1031C00008F00C0121B1042907D0082959D109E0E0
:1031D000DFF84C81C0F8008058E0DFF84881C0F883
:1031E000008053E0DFF83481D8F8048008F47012CE
:1031F000DFF82881D8F8048008F48035920C0D2A75
:1032000001D0921C00E0062235B9DFF81C8102FBD8
:1032100008F8C0F8008033E0DFF80081D8F82C808F
:1032200008F48036DFF8F480D8F82C8008F00F0816
:1032300008F1010446B9DFF8EC80B8FBF4F808FBAC
:1032400002F8C0F800801BE0DFF8D080D8F82C80AE
:10325000C8F3031808F10107DFF8C080D8F82C8004
:10326000C8F3032808F1020CDFF8B880B8FBF7F8C0
:1032700008FB0CF8B8FBF4F808FB02F8C0F8008073
:1032800004E0DFF89C80C0F8008000BF00BFDFF8DA
:103290008C80D8F8048008F0F0010909DFF88C80F0
:1032A00018F80130D0F8008028FA03F8C0F804803C
:1032B000DFF86880D8F8048008F4E061090ADFF8D4
:1032C0006C8018F80130D0F8048028FA03F8C0F8B0
:1032D0000880DFF84880D8F8048008F46051C90AF3
:1032E000DFF8488018F80130D0F8048028FA03F895
:1032F000C0F80C80DFF82480D8F8048008F440413E
:10330000890BDFF82C8018F80130D0F80C80B8FB5E
:10331000F3F8C0F81080BDE8F08100000010024012
:1033200000127A0040787D0100093D000000002075
:103330001000002010B501460022002300204A1191
:10334000012A02D1094C236806E0022A02D1074C67
:10335000236A01E0054C636A01F01F0201249440D6
:103360001C400CB1012000E0002010BD0010024004
:103370000149C87170470000001002400149086708
:10338000704700000000424201460020034AD06A14
:1033900020F470400843D0627047000000100240E3
:1033A00070B5064600251348007801281FD1124841
:1033B000FEF7FCFDC0F13200C5B2002D17DD002183
:1033C0000D48FEF741FD002404E00C48005D305537
:1033D000601CC4B2AC42F8DB002006490870322001
:1033E00005496C39086701210348FEF72DFD284681
:1033F00070BD0000260000206C000240BC010020CF
:1034000070B504460D46002624B92846FFF7C8FFCC
:10341000064600BF00BF304670BD2DE9F0410746AB
:103420000D4614469846C4B12189284605F0DCF8BB
:103430002189481C0121FCF773FF0646227A304699
:10344000616800F079FB3046FFF746FE204602F047
:103450007FFD3046FCF778FF02E0284603F0C8F80D
:103460000020BDE8F08170472DE9F04180460D460F
:1034700000272E480078012836D100212C48FEF77D
:10348000E3FC2B48FEF792FDC6B22A480078801B69
:10349000C7B2002405E0E0192749085C0855601C04
:1034A000C4B2B442F7DBA819642802DDC6F1640097
:1034B000C5B2002406E018F80400A1191E4A5054B1
:1034C000601CC4B2AC42F6DB2F46A819194908703B
:1034D000A8191749091D0860012014490870012125
:1034E0001348FEF7B1FC1DE000211148FEF7ACFCCB
:1034F000642D00DD6425002405E018F804000E4961
:103500000855601CC4B2AC42F7DB2F460948057071
:103510000748001D05600120044908700121044886
:10352000FEF792FC3846BDE8F08100002400002040
:1035300080000240250000205801002070B504469C
:103540000D4609480078012808D101232A46214662
:103550000648006805F01EFC064602E06FF00C000D
:1035600070BD3046FCE70000BC000020C000002019
:103570002DE9F04104460D46164600272CB9314688
:103580002846FFF771FF074600BF00BF3846BDE879
:10359000F08110B500F002F810BD00000CB500205D
:1035A000019000903F48006840F480303D49086039
:1035B00000BF3C48006800F4003000900198401CB7
:1035C0000190009818B90198B0F5A06FF1D1354875
:1035D000006800F4003010B10120009001E00020EC
:1035E0000090009801285CD12F48006840F010003E
:1035F0002D4908600846006820F00300086008466E
:10360000006840F00200086026484068254948608C
:103610000846406848600846406840F4806048605A
:103620000846C06A214908401E49C8620846C06A67
:103630001F4908431B49C8620846006840F0806083
:10364000086000BF1748006800F000600028F9D04B
:103650001448406820F47C101249486008464068CD
:1036600040F4E81048600846006840F08070086048
:1036700000BF0C48006800F000700028F9D009482D
:10368000406820F00300074948600846406840F061
:103690000200486000BF0348406800F00C000828A2
:1036A000F9D10CBD001002400020024000F0FEFFE6
:1036B00044060100042808D14FF0E021096941F0D7
:1036C00004014FF0E022116107E04FF0E0210969A9
:1036D00021F004014FF0E0221161704770470000B3
:1036E00010B51648006840F001001449086008460B
:1036F000406813490840114948600846006811496C
:1037000008400E4908600846006820F480200860E0
:103710000846406820F4FE0048600846006820F033
:10372000A05008604FF47F0088600020C862FFF757
:1037300030FF4FF000600449086010BD00100240E7
:103740000000FFF0FFFFF6FE08ED00E010B50121DC
:103750001E4800F04CF8002836D000F01BFF04464D
:103760000A34204602F0BAFD0A2000F0CFF900F03A
:1037700031FFFA2805D3002002F0BCFD012002F041
:10378000B3FD0A2000F0B2F900F0EEFE41F28831FC
:10379000884205D3002002F08FFD012002F086FD53
:1037A0000A2000F0ABF900F0EBFE44F620618842FD
:1037B00005D3002002F08CFD012002F083FD0121E1
:1037C000024800F005F800BF10BD000000040040F2
:1037D000CA430282704721B1028842F0010202808E
:1037E00004E002884FF6FE731A400280704730B53D
:1037F0000246002000230024158A05EA010395896A
:1038000005EA010413B10CB1012000E0002030BD35
:103810001AB183890B43838102E083898B438381BF
:1038200070470000002202881D4B98420ED01D4BAD
:1038300098420BD0B0F1804F08D01B4B984205D076
:103840001A4B984202D01A4B984204D14FF68F730C
:103850001A404B881A43174B984207D0164B984290
:1038600004D04FF6FF431A40CB881A4302808B885E
:1038700083850B8803850A4B98420BD0094B9842ED
:1038800008D00E4B984205D00D4B984202D00D4BFC
:10389000984201D10B7A038601238382704700008E
:1038A000002C0140003401400004004000080040AA
:1038B000000C004000100040001400400040014097
:1038C000004401400048014010B5002440F224416A
:1038D000074800F026F848B105480088C4B20448FB
:1038E000001D0088C4B201200249087010BD00000C
:1038F000004400402600002021B1828942F4005299
:10390000828104E082894DF6FF731A4082817047FC
:103910001AB1838A0B43838202E0838A8B438382BA
:10392000704770B50246002400230025002040F6B1
:103930006A16B14200D100BFC1F3421501F01F0366
:10394000012606FA03F3012D02D19689334006E0E1
:10395000022D02D1168A334001E0968A33400C12C0
:10396000012606FA04F41688344013B10CB1012084
:1039700000E0002070BDF0B50346002400260025BD
:10398000002040F66A17B94200D100BF1846C1F3C3
:10399000421401F01F06012707FA06F5012C01D198
:1039A0000C3004E0022C01D1103000E014301AB1C8
:1039B00007682F43076002E00768AF430760F0BD68
:1039C0002DE9F04786B005460E460024A24600BF0A
:1039D000A1460027B08900B100BF2F462C8A4CF6C3
:1039E000FF700440F08804432C82AC894EF6F3103B
:1039F0000440B08831890843718908430443AC818D
:103A0000AC8A4FF6FF400440B0890443AC8201A861
:103A1000FFF7C8FB1F48874202D1DDF810A001E084
:103A2000DDF80CA0A88900F4004040B10AEBCA0000
:103A300000EB0A1031684900B0FBF1F807E00AEB2F
:103A4000CA0000EB0A1031688900B0FBF1F864206D
:103A5000B8FBF0F004012009642101FB1089A8895A
:103A600000F4004040B1322000EBC900B0FBF1F09F
:103A700000F00700044308E0322000EB0910642145
:103A8000B0FBF1F000F00F0004432C8106B0BDE85C
:103A9000F0870000003801404FF41651016000210A
:103AA0008180C18001810C21418100218181704789
:103AB00000BFFEE7490050EAC12018BF04204A0DAC
:103AC00018BF40F0010040F2FF72B2EB515F08BF37
:103AD00040F00200012808BF0520704730380A284E
:103AE00001D2012070470020704700000249096898
:103AF0000144014A11607047AC0000200249096886
:103B00000144014A11607047B4000020024909686D
:103B10000144014A11607047B000002010B504460E
:103B200000F0ECFB0022034941F2883002F0ECFB8C
:103B300010BD00001D3B000810B50346002003E047
:103B40000C5C1C54441CE0B29042F9DB10BD10B573
:103B50006FF00400FFF7AEFD10BD2DE9FC470546F0
:103B60008846164600BF1DB900BF00BFBDE8FC87F0
:103B700000BF70892A2803DA304602F0E9F9F5E738
:103B8000776807F10E042088B0F5807F08D120798E
:103B9000062805D16079042802D16088082803D05E
:103BA000304602F0D5F9E1E7D4F80E000190A069A3
:103BB0000090281D08B1686810B94FF0000907E0AF
:103BC00000986968884201D1012000E00020814608
:103BD000B9F1000F01D0012000E00220034604F1FA
:103BE000080201A9284600F0CFFBE088B0F5807FED
:103BF00003D0B0F5007F33D131E0B9F1000F2CD004
:103C0000022001F040FCE080D4F80E00A06168685A
:103C1000C4F80E0000BF95F82600062801D000BFAA
:103C200000BF00BFA068C4F81200A089E082A068AD
:103C30003860A089B880D8F80000A060B8F8040007
:103C4000A081D8F80000C7F80600B8F80400788111
:103C500031462846AA69904700E000BF01E000E035
:103C600000BF00BF304602F073F900BF7EE70000DE
:103C70002DE9FC5F05460F464FF00A08C1460A26AB
:103C80000024A34600200190B246009000BF62E0ED
:103C900004EB84005D4A02EB8000817C0A2E02D195
:103CA00009B966B255E0002953D000BF012903D0FD
:103CB000022901DA00BF00BF00BF5DB104EB84023E
:103CC000524B03EB820228685268904202D160B2E4
:103CD000BDE8FC9F012928D104EB84004B4A52F82F
:103CE000200088B104EB840002EB8000C27C0098C5
:103CF00082422EDB4FFA84FA04EB8400434A02EB43
:103D00008000C07C009024E004EB84003F4A02EB7A
:103D10008000C07C58451CDB4FFA84F804EB84001B
:103D200002EB800090F813B013E0022911DB04EBE2
:103D30008400364A02EB8000C27C0198824208DB94
:103D40004FFA84F904EB8400304A02EB8000C07C17
:103D50000190601CC4B20A2C9ADB07F0020020B963
:103D60000A2E05D107F0010010B94FF0FF30AFE780
:103D70000A2E01DAF4B226E0B9F10A0F0BDA09F0E3
:103D8000FF0400BF04EB8400204951F8200008B173
:103D900000BF00BF0EE0B8F10A0F02DA08F0FF041E
:103DA00008E0BAF10A0F02DA0AF0FF0402E04FF06D
:103DB000FF308DE700BF0A2C01DB00BF00BF00BF52
:103DC000204600F025F800BF0A2C01DB00BF00BF31
:103DD00000BF00BF04EB84000C4901EB8000807C35
:103DE00008B100BF00BF00BF35B104EB8401074A32
:103DF00002EB810128684860002004EB8401034A3B
:103E000002EB8101C87460B262E700002402002066
:103E100010B5044604EB84000C4951F8200060B151
:103E200004EB8401094A52F8210002F091F80020C5
:103E300004EB8401054A42F82100002004EB8401D0
:103E4000024A02EB8101887410BD000024020020A8
:103E50002DE9FC4704460F461546A94600BF0CB99C
:103E600000BF00BF00BF00BF0FB900BF00BF00BF51
:103E700000BF0DB900BF00BF00BF0E21384602F0E1
:103E8000C4F818B16FF00100BDE8FC87214628682E
:103E900000F0EDFC10B1DFF8048177E0287800F045
:103EA000F000E02815D101208DF8000000208DF8E9
:103EB00001005E208DF80200687800F07F008DF828
:103EC0000300A8788DF80400E8788DF80500E8462E
:103ED0005BE02868A1680840D4E9011211408842DB
:103EE00010D0288880B24FF6A96188420AD004F128
:103EF0000C0020B1E06810B104F10C0902E06FF091
:103F00000300C1E72648007800EB8000254901EB5B
:103F10008000807C022812DB2149097801EB8101B5
:103F2000204A02EB8101D9F800004968884206D195
:103F30001B4802783946204600F036F8A4E70026F0
:103F40001BE006EB8600174901EB8000807C02280D
:103F500011DB06EB8601134A02EB8101D9F8000060
:103F60004968884207D10E490E70F2B239462046A0
:103F700000F01AF888E7701C46B20A2EE1DB3A46D8
:103F80004946204600F050F87EE700BF434604F162
:103F900027023946204600F08FF975E7E4940008BF
:103FA000C40000202402002070B505460E461446C9
:103FB00000BF04EB84001B4901EB8000807C0228D9
:103FC00001DA00BF00BF00BF04EB8400154901EB1C
:103FD0008000807C022817D104EB840001EB800074
:103FE000C07CE42810DB04EB84000A4602EB80006E
:103FF000011D284600F04AF930B9032004EB840182
:10400000084A02EB8101887404EB8400054901EB46
:10401000800000F10C0305F127023146284600F02C
:104020004BF970BD240200202DE9F05F80460F4659
:10403000164608F127094FF0FF3A4146386800F06C
:1040400016FC38B9387800F0F000E02802D00FB143
:10405000386818B96FF00D00BDE8F09F01213846AF
:10406000FFF706FE0446002C01DA2046F4E704EBD5
:104070008400504901EB8000807C30B9012004EBC2
:1040800084014C4A02EB8101887400BF04EB840078
:10409000484901EB8000807C012808D004EB8400B3
:1040A00001EB8000807C022801DA00BF00BF00BF66
:1040B00004EB84003F4901EB8000807C012800D0A4
:1040C0003EB93946404600F0E1F882460EB9504606
:1040D000C2E700BF0EB900BF00BF00BF04EB840001
:1040E000344901EB8000807C02280FDB32490C70E0
:1040F00004EB84002F4901EB800000F10C034A46D9
:104100003146404600F0D8F8824650E004EB840087
:10411000284901EB8000807C012848D14FF0000B3A
:10412000354610E000BF68892989884203D1286894
:1041300008B100BF00BF00BF287B012802D04FF0AC
:10414000010B02E02D68002DECD100BFBBF1000F88
:1041500010D029890022032001F0D1FC05466DB161
:104160003146284601F035FE40B1284601F0F0FE08
:10417000002503E03546284601F0E5FFA5B104EB34
:1041800084000C4951F8200030B104EB8401094A45
:1041900052F8210001F0DCFE04EB8400054941F8EF
:1041A00020504FF0000A01E04FF0FF3A00BF5046A8
:1041B00052E7000024020020C40000202DE9F84F3F
:1041C0000746884691469A46DDF828B000200090C0
:1041D00000BF0FB900BF00BF00BF00222A2103208B
:1041E00001F08DFC05461DB94FF0FF30BDE8F88F9A
:1041F00000BF68892A2801DA00BF00BF00BF6E68CF
:1042000006F10E040D9801F03EF9E08000BF97F82A
:104210002600062801D000BF00BF00BFDAF800006A
:10422000A060BAF80400A0810B980168C4F81210CD
:104230008088E082D9F800003060B9F80400B080CE
:10424000D8F80000C6F80600B8F804007081DBF862
:104250000000C4F80E000C980068A0614FF4807054
:1042600020800820608006202071042060714FF4B7
:10427000C160B08129463846BA6990470090284607
:1042800001F066FE00250098B0E700007FB5044607
:104290000D460121064A201D04F127038DE8250063
:1042A0000391044A19462046FFF788FF04B070BD09
:1042B000EA940008E49400082DE9F04104460E4613
:1042C00017469846756800BF94F82600062801D066
:1042D00000BF00BF00BFD8F800002860B8F8040095
:1042E000A8803868C5F80600B88868810820A881C9
:1042F00031462046A2699047BDE8F08170B50024A0
:104300003DE004EB84001F4901EB8000857C25B370
:1043100004EB840001EB8000C07C401C04EB8401B2
:10432000184A02EB8101C87404EB8400114601EBCA
:104330008000C07CF0280DDA04EB840001EB8000E3
:10434000807C01280AD104EB840001EB8000C07C52
:10435000022803DB2046FFF75BFD0EE004EB840040
:10436000084901EB8000807C032806D1022004EB81
:104370008401044A02EB81018874601CC4B20A2CD7
:10438000BFDB70BD240200202DE9F04706460D4634
:104390001746984600BF96F82600062801D000BFB1
:1043A00000BF00BF5DB1286848B13146286800F001
:1043B0005EFA20B9287800F0F000E02803D16FF011
:1043C0000D00BDE8F08741462846FFF751FC044642
:1043D000002C01DA2046F4E7022004EB84011A4A9B
:1043E00002EB8101887404EB8400114601EB80002C
:1043F000866004EB840001EB80003968C160B988F5
:104400000182002004EB840102EB8101C87404EBFB
:104410008400114651F8200098B104EB840051F853
:104420002090002004EB840142F821003B4606F175
:10443000270249463046FFF73FFF484601F088FD16
:1044400000BF0020BDE70000240200202DE9F0415C
:1044500004460E464FF00E0860890E2800DC4BE043
:104460006568AF89287800F00100B0B1287801288C
:1044700009D1687888B9A8785E280ED1607B40F0B1
:104480001000607309E006221E492846FBF79EFFD4
:1044900018B9607B40F008006073082F03D0B7F5AF
:1044A000C16F24D116E096F82D0000F0200000B96D
:1044B00022E0C8F1000001B2204601F0A6FD20B1C3
:1044C00000BF00BF00BF00BF16E03146204600F02D
:1044D000E3FA0DE096F82D0000F0200000B90BE0A3
:1044E000224606F127013046FFF737FB00E003E0E4
:1044F00000BF0020BDE8F081204601F029FD00202A
:10450000F8E70000E494000810B5044600BF0CB9B9
:1045100000BF00BF00BF044860610448A06120469E
:1045200000F000FF002010BD513E00083954000883
:1045300070B50446204600F045FF064616B94FF018
:10454000FF3070BD214630462269904705461DB1B7
:10455000304601F0FDFC00262846F2E701480078CD
:1045600070470000B8000020014800687047000054
:10457000AC0000200148007870470000BA0000201D
:104580000148006870470000B400002000487047F0
:104590003200002001480068704700002800002019
:1045A000004870472C00002000487047A4000020FD
:1045B0000148008870470000A800002001480088DA
:1045C00070470000A20000200148007870470000FA
:1045D000B90000200148006870470000B0000020CA
:1045E00070B505460C4622460321284600F0C4F863
:1045F00070BD00002DE9FE4F04468946666830789C
:104600000007870E7942204601F0FFFC10B920898F
:10461000042800D2A2E0606890F800A0BAF1000F70
:1046200003D0BAF1080F7DD100E092E00125504897
:10463000007800F0F000E02800D100254C4908681F
:10464000494600F014F900B1002525B9204601F0D3
:104650007FFCBDE8FE8F2089082800D27EE020463E
:1046600000F0DAF818B1204601F072FCF1E72221DF
:10467000204601F0CAFC80B33946204601F0C5FC53
:1046800020B100BF00BF00BF00BF6BE02189002246
:10469000022001F034FA054605B963E000BF6989DC
:1046A00007F10800814201D200BF00BF00BF2146D0
:1046B000284601F08EFB20B100BF00BF00BF00BF45
:1046C00050E06E68784201B2284601F09EFC28B1A5
:1046D00000BF00BF00BF00BF44E004E0204601F07F
:1046E00037FC2C460AE06FF02101204601F08DFCDA
:1046F00020B100BF00BF00BF00BF33E0D4F804808A
:104700001B480068F0601B4800683061002088F892
:104710000000A8F80200FF203072002070813946A6
:10472000204600E014E001F070FC18B100BF00BFAB
:1047300000BF0CE001200021FF230A46CDE901095A
:1047400000910B49204600F08FFA054600BF00E0BB
:1047500000BF00BF204601F0FBFB7AE7204601F0D6
:10476000F7FB76E7204601F0F3FB00BF71E700009E
:10477000D4000020D00000202DE9FE4306460F465D
:10478000904600222421012001F0B9F905460DB917
:10479000BDE8FE8300BF6889242801D200BF00BFA6
:1047A00000BFD6F804906C68277084F80180002060
:1047B000A080E08071686A6802F108001C22FBF7A3
:1047C00050FE002060806989204600F01BF8608060
:1047D000D9F80C00029001200021FF2302AACDE9A4
:1047E0000010284600F01EFA284601F0B1FB00BF79
:1047F000CEE770B505460C4622460B212846FFF74A
:10480000BBFF70BD70B504460D462946204600F03A
:104810005AFEC04380B270BD2DE9F0410646002427
:104820000027354617E06989686800F04CFE0444AB
:10483000A0B200EB1444688900EBD0714910A0EBE2
:10484000410139B1C7F10100C7B2E0B2C4F3072199
:1048500041EA00242D68002DE5D127B1E0B2C4F370
:10486000072141EA0024E04380B2BDE8F08118B599
:1048700002460092D04300B10AB9012018BD91F858
:104880002D0000F0020008B90020F7E748689042C8
:1048900001D10020F2E700988B681840D1E901347B
:1048A0002340984208D1886822EA00008C68E343DC
:1048B000984201D10120E1E70020DFE72DE9F74F21
:1048C0008CB004468946B9F824000890142004905E
:1048D0004FF0000860680B900B9EF08800F0EDFD33
:1048E00003900398C0F30C000790039800F4005065
:1048F00006902089143880B209900899A1F114001B
:10490000C11700EB5171C1F3CF010A91A9E00898DA
:1049100014380999884201DB012000E0002005904D
:104920000798C0F30C00069908430390059818B93E
:10493000039840F400500390059808B1099801E0ED
:104940000A98C0001FFA80FB00221421022001F007
:10495000D6F8054625B94FF0FF300FB0BDE8F08F0F
:1049600000BF6089142801DA00BF00BF00BF142215
:1049700068680B99FBF775FD6E68616804980844D8
:10498000606061890498081A6081CDF808B03FE042
:1049900061890298814201DD029800E060898046C9
:1049A000B8F1000F01D1246832E000F063F8074647
:1049B0002FB9284601F0CCFA4FF0FF30CDE7606800
:1049C0003B4602224146CDE90008032001F098F958
:1049D0008246BAF1000F08D1384600F050F8284658
:1049E00001F0B6FA4FF0FF30B7E7204601F0ABFB1D
:1049F0007C611F4838615146284601F0B9F9029898
:104A0000A0EB080080B20290029800B1246800BFB9
:104A100002980028BCD1CDF81080039800F033FD37
:104A2000F0800BF1140188B200F02DFD70800020A1
:104A3000708114213046FFF7E5FE7081D9F81430FB
:104A4000294648460E9A9847284601F081FA099867
:104A5000A0EB0B0080B209900A990798084480B235
:104A60000790099800287FF452AF00BF75E7000057
:104A7000F552000810B5062000F06AFF10BD10B511
:104A8000044600BF0CB900BF00BF00BF214606208E
:104A900000F016FF10BD00002DE9F04706460F4656
:104AA000756828780421B1EB201F05D0304601F04D
:104AB0004FFA0020BDE8F087287800F00F094FF684
:104AC000FF7000EA8909688800F0F7FC8046708969
:104AD000484502DB3089404504DA304601F038FAB7
:104AE0000020E7E74146304601F0D5FA28694849F9
:104AF0000860E868474908604FF0010A3C4600BF7B
:104B000094F82D0000F0010078B1201D68B16068B4
:104B100058B13F4800686168884205D03C49086840
:104B20002146FFF7A4FE00B10DE0BAF1000F04D05A
:104B30004FF0000A3848046800E02468BC4200D105
:104B40002468002CDCD100BF324908683946FFF7E1
:104B50008EFE28B92F48007800F0F000E02804D13C
:104B6000304601F0F5F90020A4E724B9304601F001
:104B7000EFF900209EE7E8884FF63F71084038B112
:104B8000304600F0DDF806460EB9002092E7756861
:104B900022480760224805603946304601F04CFB48
:104BA00058BB687A01280DD0062806D011280ED1EE
:104BB0003946304604F096FB1EE03946304602F096
:104BC00015F819E039463046FFF714FD14E0104996
:104BD00008683946FFF74BFE50B90D48007800F0E1
:104BE000F000E02804D0756002213046FFF7F8FCA1
:104BF000304601F0ADF900BF00BF00200749086052
:104C000007490860034908600149086000BF51E78F
:104C1000D4000020D0000020F0000020C8000020B8
:104C2000CC0000202DE9FE4F05460F46164698465B
:104C3000DDE90C9A00BFE889012801D000BF00BF60
:104C400000BF304600F02CFB040002D1001FBDE87D
:104C5000FE8F4346324639462846CDE9009A0294F3
:104C600000F002F8F3E700002DE9F84F05460F4683
:104C700090469A46DDF828B00C9E00BFE8890128CE
:104C800001D000BF00BF00BFB8F1000F40D04FF00F
:104C900014091421284601F0B8F918B16FF0010089
:104CA000BDE8F88F6C6800BF6889142801D200BF86
:104CB00000BF00BF84F808A00B986072D8F800000D
:104CC000206148464FEAE97109EB9171C1F3870110
:104CD00041F04001217084F801B0288900F0D3FB35
:104CE00060800020E0801548008800F0CCFBA080A8
:104CF00012480088401C114908800FB1386810B96B
:104D00007068E06001E03868E0600020608103E0E6
:104D10006C6820690090E846B08C48B12889B18C55
:104D2000884205DD424631462846FFF7C7FDB7E712
:104D300042462946304673699847B1E7D8000020BB
:104D40002DE9F84F804600200090D8F804502878CC
:104D500000F00F001421B1EB800F00D0ACE0E88828
:104D600000F0ABFBC0F30C004FF6FF7101EAC00A84
:104D7000688800F0A2FB297801F00F01A0EB810008
:104D80001FFA80FB404601F01BF806464D4801889B
:104D900088190A280ADD3146284600F01BFA20B19E
:104DA0004848008830440A2800DD85E04648046809
:104DB00012E06069E968884209D1A06929698842DE
:104DC00005D1A089A988884201D1012000E00020F6
:104DD00000B103E000942468002CEAD100BF34B98C
:104DE0003146284600F060F9044694B964E0E8884A
:104DF00000F063FBC0F30C0058B9E08900F05DFBE4
:104E0000C0F30C0028B11422294604F10800FBF776
:104E100028FB2C48008830442A490880A87900F0F3
:104E2000200030B9A07F40F00100A0770AEB0B0012
:104E3000A0834146204600F049F8D0B3A08B14303F
:104E4000A08360684068076860684568142204F1C0
:104E500008012846FBF705FBA08B00F014FB6880D7
:104E60000020E880688114212846FFF7CBFC688188
:104E7000D4F804800CE0D7F804906FF013013846A2
:104E800001F0C3F83946404600F072FFD9F80070CF
:104E9000002FF0D12046009900F0ECF8404600F0D9
:104EA0008FFF08490988081A064908804046BDE86E
:104EB000F88FFFE70020FAE7404601F049F80020AC
:104EC000F5E70000E0000020DC0000202DE9FC5F99
:104ED00006460F4600254FF0010BD7F804A0BAF89C
:104EE000020000F0EAFA9AF8001001F00F01A0EBBE
:104EF000810080B20090BAF8060000F0DEFAC0F33C
:104F00000C004FF6FF7101EAC000019000BF00BF26
:104F10007C68002020600198A080DDE90010084432
:104F2000E080D6F804902EE0D9F80480A088B8F884
:104F30000410884210DAC4F800905DB1A088E988B6
:104F4000884204DBE088B8F80410884200DD81E084
:104F50002F6000E0776019E0A088B8F8041088425C
:104F600000D177E0A088B8F80610884200DA71E036
:104F700035B1E888B8F80410884201D04FF0000B32
:104F8000D8F800904546B9F1000FCDD100BFB9F176
:104F9000000F17D17DB100BFE888A188884201DDEC
:104FA00000BF00BF00BF2F60E888A188884209D0F9
:104FB0004FF0000B06E000BF706808B100BF00BFF3
:104FC00000BF7760B07F00F00100E8B3BBF1000FD5
:104FD00039D070684068808810B14FF0000B32E023
:104FE0002546D4F800900BE0D9F80440E888A18861
:104FF000884202D04FF0000B05E02546D4F800901F
:10500000B9F1000FF0D100BFBBF1000F1BD000BF02
:10501000706808B900BF00BF00BF00BF706840687B
:10502000A04201D100BF00BF00BF00BF206808B18F
:1050300000BF00BF00BF00BFE088B18B884201D035
:1050400000BF00BF00BF00E002E05846BDE8FC9F83
:105050000020FBE7384600F0B3FE05490988081A2E
:1050600003490880384600F073FF0020EEE7000097
:10507000E000002070B504460D460A480068A042D2
:1050800003D108492068086006E000BF0DB900BFE1
:1050900000BF00BF206828602146052000F010FCFA
:1050A00070BD0000DC00002070B505460E460520EE
:1050B00000F04EFC044664B93146284600F08AF8F8
:1050C000B04203DB052000F043FC04460CB900208D
:1050D00070BD20212046FBF72BFA0320E07706481D
:1050E00000682060044804601422294604F1080086
:1050F000FBF7B7F92046EBE7DC0000202DE9F0478D
:1051000004468846002500BFA04501D100BF00BF6E
:1051100000BFB8F1000F07D000BFD8F80000A042D0
:1051200001D000BF00BF00BF6068D0F80490B9F89C
:105130000400F0B96768D9F800006060142204F137
:1051400008017868FBF78DF901213846FFF751FB1C
:10515000384600F035FE064600BFA819B0F5803F7E
:1051600001DB00BF00BF00BFA81985B2384600F0C0
:10517000EFFE676816E0D7F80490BA46D9F80070D9
:10518000504600F01DFE064600BFA819B0F5803F4E
:1051900001DB00BF00BF00BFA81985B2504600F078
:1051A000D7FE00BF002FE6D141462046FFF762FF41
:1051B00000BF07480088A84201DA00BF00BF00BF57
:1051C00003480088401B024908802846BDE8F08754
:1051D000E00000202DE9F05F05468946002700BF6A
:1051E0000026B346B246194804681DE06069E968C4
:1051F000884207D1A0692969884203D1A089A9887A
:10520000884201D0012000E0002048B10AF1010AE3
:105210000EB9264604E0E07FF17F884200DC264696
:10522000206800B1A3462468002CDFD12EB1594676
:105230003046FFF763FF804647444F4502DABAF134
:10524000010FCDDC3846BDE8F09F0000DC000020F7
:1052500010B5044600F00AF8002203494FF47A70B2
:1052600001F052F810BD00005152000870B5002541
:105270000A4804680FE0E07F002805DDE07F401E5B
:10528000E0772546246806E026462468294630460D
:10529000FFF734FF00BF002CEDD170BDDC00002013
:1052A00010B50246114801680FE091F82D0000F09A
:1052B000010048B110688B681840D1E901342340DF
:1052C000984201D1084610BD09680029EDD108486F
:1052D000006830B10648006890F82D0000F0010029
:1052E00008B90020EFE702480068ECE7F000002072
:1052F000F400002070B505462C4600BF0CB900BF75
:1053000000BF00BF00BFAC4201D000BF00BF00BF64
:10531000606910B1606900F01BFE2046FFF7AFFB2B
:1053200070BD000070B50446FFF73AF90546062047
:1053300084F82600287884F8270069782820015509
:10534000A97829200155E9782A20015529792B20AF
:10535000015569792C20015540F2DC50A084FFF7FB
:1053600015F92062322084F82D00052211491248D7
:10537000FCF7D8FE052211491148FCF78BFE0026E8
:1053800006E00F4901EB06100121FCF7ADFE761C8B
:10539000052EF6DB002607E0074901EB06104FF467
:1053A0004001FCF7E7FE761C052EF5DBFDF754F90E
:1053B00070BD00003C2100203C0300208C03002035
:1053C000EC0200202DE9F04387B08146002600253D
:1053D00001A8FDF7E9F801A807C804AB07C30498C2
:1053E00087B2DDF8148003223946104600F087FBAF
:1053F000054665B12C4608E0628908EB0601606845
:10540000FBF72FF8608906442468002CF4D14FF094
:105410000040069908600748406900F0800020B10C
:1054200080200449486100208860284607B0BDE814
:10543000F0830000009002402DE9F04180460E46C6
:105440000025FCF7BFFE0746344607E0628978195D
:105450006168FBF706F8608905442468002CF5D1E3
:10546000A8B2FDF75BF90020BDE8F081014608060F
:1054700001F47F4240EA022001F47F0240EA122058
:1054800040EA1160704701460806000C40EA11200E
:10549000704710B500F0AEF800F028FA00F0B0FA4E
:1054A00003F01EFF01F0A0FB00F080FF10BD00B56F
:1054B00003461846FFF7DAFF00BD00B50246104666
:1054C000FFF7E1FF00BDF8B505460A462B46002070
:1054D0000090002103F0010636B1002A04DD13F824
:1054E000010B8DF80100521E1C4603E034F8027BCC
:1054F0003944921E012AF9DC002A02DD20788DF859
:105500000000BDF80000014488B200EB114188B2F0
:1055100000EB114126B1C8B2C1F3072747EA0021C9
:1055200088B2F8BD8EB0FEF712FBFDF75AFDFDF70D
:105530005CFDFDF72DFCFDF723FCFDF741FCFFF7BB
:1055400037F80446FFF730F80546FFF737F8064608
:1055500022462946FDF7E4FC0EE001A90020FDF7F4
:105560004FFF38B101A8FAF75DFF84B2214601A8C8
:10557000FDF7E4FFFDF7F6FAEFE7000070B504462B
:1055800004B970BD00BF04F0030008B100BF00BF44
:1055900000BF00BF14480068844203D3134800686A
:1055A000844201D300BF00BF00BF0F48006884429F
:1055B00003D30E480068844200D3E2E7A4F1080553
:1055C00000BF287908B900BF00BF00BF00202871C4
:1055D00007480068854201D205480560284600F06A
:1055E000B7FD00BFCDE70000E4000020E800002088
:1055F000EC00002000BF00BF114921F00301114A57
:105600001160114608684FF47A51018000214180F1
:1056100001711146096801F57A510B4A11600121A7
:10562000126811714FF47A51074A12681180064AC4
:105630001268518003490968044A116070470000EC
:10564000EF3E0020E4000020E8000020EC000020F5
:10565000F0B502460AB90020F0BDD01C20F00300CE
:1056600082B20C2A00DA0C22B2F57A5F01DD00204A
:10567000F2E73E4800883E4E3688801B83B26EE0DB
:105680003B480068C1180879002865D10E8803F1ED
:105690000800301A90425FD30E8803F10800361AD2
:1056A00002F11400864218D303F10800104485B2B9
:1056B0002F480068441900202071088820806380EA
:1056C0000D80012008712088B0F57A5F07D020880E
:1056D000274E36683044458001E001200871234898
:1056E000006881421CD1214E306803E00688204FBB
:1056F0003F68F01906791EB11E4E3668B042F5D1EA
:105700001A4E306000BF36681A4F3F68BE4205D05F
:10571000164E366836790EB100BF00BF00BF00BF1D
:1057200000BF01F108001044124E3668B04201D9A2
:1057300000BF00BF00BF00BF01F0030008B100BF01
:1057400000BF00BF00BF01F0030008B100BF00BFF1
:1057500000BF01F108007FE705480068C35AC2F5A1
:105760007A5098428CDC002076E70000EC000020A4
:10577000E4000020E80000202DE9F04105460A463B
:10578000D01C20F0030082B20C2A00DA0C22B2F501
:105790007A5F02DD0020BDE8F08100BF4548006867
:1057A000854203D344480068854201D300BF00BF4F
:1057B00000BF40480068854203D33F4800688542E7
:1057C00001D32846E7E7A5F108043A480088201AE3
:1057D00086B22088801B083887B200BFBA4201DD3C
:1057E00000BF00BF00BFBA4201DD0020D3E7BA42CC
:1057F00001D12846CFE72088DFF8B8C0DCF800C028
:1058000000EB0C01087980BB088806F1080C944471
:105810001FFA8CF3DFF8A4C0DCF800C08C4508D177
:10582000DFF890C0DCF800C09C44DFF89080C8F836
:1058300000C0DFF880C0DCF800C00CEB03014FF0C3
:10584000000C81F804C008804E802380B1F800C0AD
:10585000BCF57A5F08D0B1F800C0DFF85880D8F8FE
:105860000080C444ACF8023022E0FFE702F11400EB
:10587000B8421DD806F10800104483B20D480068F4
:10588000C1180E480068814201D20C480160002016
:105890000871208808804E8023800888B0F57A5FE0
:1058A00006D00888DFF80CC0DCF800C060444380F4
:1058B000284670E7E4000020E8000020EC0000200B
:1058C00001B9704700BF01F003030BB100BF00BF77
:1058D00000BF0A46044B53F820301360024B43F8D4
:1058E000202000BFEDE70000807D002010B50020E3
:1058F00001E0431C98B20A28FBDB114B23F00301A3
:10590000002019E000230F4C44F8203000220CE066
:105910000C4B53F820300B600A4B43F820100A4B15
:1059200033F810301944531C9AB2084B33F8103036
:105930009342EDDC431C98B20A28E3DB10BD000063
:10594000AB7D0020807D0020F89400080C950008B5
:10595000024600BF0A2A03DB00BF00BF00207047D9
:1059600000BF094850F8221059B1074B086843F8A6
:10597000220000BF01F0030008B100BF00BF00BF5C
:1059800000BF0846EBE70000807D00202DE9F047CE
:1059900004460E4617469846DDE9095ADDF8209080
:1059A00000BF0DB900BF00BF00BF00206060A06055
:1059B000E06084F82D00C4F81C900F48007884F84B
:1059C00030000D480078401C0B490870C4F810A046
:1059D00043463A463146204600F013F82046A84791
:1059E00010B10020BDE8F08704480068206003483B
:1059F00004602046F6E70000F8000020F0000020D8
:105A000070472DE9F04106460F4614461D463946BB
:105A1000304600F017F82146304600F04FF829468E
:105A2000304600F009F8BDE8F08100000149086047
:105A300070470000F400002009B9002200E00A6865
:105A4000C26070472DE9F04107460C4654B3206808
:105A50007968884201D1012000E0002010BB154880
:105A600006680BE030687968884206D1D6F80C8069
:105A7000304600F003FD464600E0F668002EF1D106
:105A80000D4805680CE055B1286840B12868796870
:105A9000884204D10CB9002000E020682860ED683D
:105AA000002DF0D10CB9002000E020687860BDE83E
:105AB000F0810000100100200C01002009B9002233
:105AC00000E00A688260704710B5044694F82D0023
:105AD00000F0010090B914F82D0F40F00100207083
