:020000040800F2
:1000000010070020ED010008A10F0008F90C0008FE
:100010009D0F00089F020008191900080000000049
:100020000000000000000000000000006B1300084A
:10003000F70400080000000071100008AD1500086A
:10004000070200080702000807020008070200086C
:10005000070200080702000807020008070200085C
:10006000070200080702000807020008070200084C
:10007000070200080702000807020008070200083C
:10008000A5020008C50200080702000807020008D0
:10009000070200080702000807020008070200081C
:1000A000070200080702000807020008070200080C
:1000B000070200081D1600080702000807020008D2
:1000C00007020008070200080702000807020008EC
:1000D000070200080702000831170008070200089D
:1000E00007020008070200080702000800000000DD
:1000F0000000000000000000000000000000000000
:1001000000000000000000000702000807020008CD
:10011000070200080702000807020008070200089B
:10012000070200080702000807020008070200088B
:10013000070200080702000807020008070200087B
:10014000070200080702000807020008070200086B
:1001500000F002F800F03AF80AA090E8000C82449F
:100160008344AAF10107DA4501D100F02FF8AFF27C
:10017000090EBAE80F0013F0010F18BFFB1A43F085
:1001800001031847FC1800001C190000103A24BF96
:1001900078C878C1FAD8520724BF30C830C144BFEC
:1001A00004680C607047000000230024002500262E
:1001B000103A28BF78C1FBD8520728BF30C148BFCA
:1001C0000B6070471FB51FBD10B510BD00F031F8B2
:1001D0001146FFF7F7FF01F027FC00F04FF803B4DA
:1001E000FFF7F2FF03BC00F053F800000948804716
:1001F00009480047FEE7FEE7FEE7FEE7FEE7FEE709
:10020000FEE7FEE7FEE7FEE704480549054A064B20
:1002100070470000B11500085101000810010020CE
:1002200010070020100300201003002070477047C3
:100230007047754600F028F8AE46050069465346FB
:1002400020F00700854618B020B5FFF7DDFFBDE8B8
:1002500020404FF000064FF000074FF000084FF02D
:10026000000B21F00701AC46ACE8C009ACE8C009BE
:10027000ACE8C009ACE8C0098D4670470446AFF34E
:1002800000802046FFF7ABFF00487047B000002019
:1002900001491820ABBEFEE726000200704700BFF0
:1002A000FEE7000010B54FF4001000F0E7F8012859
:1002B00004D103490870400500F01CF810BD00008F
:1002C0001600002010B54FF0007000F0D7F801289C
:1002D0000AD10020054908704FF0007000F00AF8BC
:1002E0000021034800F014F810BD000014000020A5
:1002F0008000024000F0805111B10349086001E024
:1003000002494860704700000404024000000240B7
:1003100021B1026842F00102026004E002684FF677
:10032000FE731A400260704701684FF6FE7211407A
:1003300001600021016041608160C1604B498842D9
:1003400008D14A490839496841F00F01474A083A3B
:1003500051608AE045491431884208D1434908393F
:10036000496841F0F001414A083A51607DE03F4957
:100370002831884208D13D490839496841F4706103
:100380003A4A083A516070E038493C31884208D115
:1003900036490839496841F47041344A083A516095
:1003A00063E032495031884208D130490839496800
:1003B00041F470212D4A083A516056E02B496431CE
:1003C000884208D129490839496841F47001274A0F
:1003D000083A516049E025497831884208D12349DB
:1003E0000839496841F07061204A083A51603CE0A0
:1003F0001F49884206D1011F096841F00F01021F01
:10040000116032E01A491431884208D11849091F95
:10041000096841F0F001164A121F116025E01449E5
:100420002831884208D11249091F096841F47061D6
:100430000F4A121F116018E00D493C31884208D163
:100440000B49091F096841F47041094A121F1160E4
:100450000BE007495031884207D10549091F096857
:1004600041F47021024A121F1160704708000240D7
:10047000080402400146486880B2704701460020E7
:10048000002201F0805313B1054B1A6801E0054BBF
:100490001A6802EA01030BB1012000E00020704756
:1004A00000040240000002401AB103680B430360DD
:1004B00002E003688B430360704710B500220268B6
:1004C00047F6F0739A430C6A8B6823430C69234305
:1004D0004C6923438C692343CC6923434C6A2343EF
:1004E0008C6A23431A430260CB6843600B688360C5
:1004F0004B68C36010BD704710B54FF4E04102482F
:1005000000F0F8FB10BD00000014014029B1064ABC
:10051000D2690243044BDA6104E0034AD2698243A0
:10052000014BDA61704700000090024010B50121D4
:10053000880300F0AFFD00214FF4804000F0AAFDD9
:1005400010BD01B581B0002000900198009002E03C
:100550000098401E009000980028F9D10CBD0000C2
:1005600000200449096801F0010109B1012000E0FF
:1005700000207047009002402DE9F04188B0044609
:100580000F464FF000080025002007908A4E01908A
:100590008A48056925F01C0502A800F0ABFD039E02
:1005A0008748864205D38748864202D245F008052F
:1005B00009E08448864205D37F48864202D245F04E
:1005C0000C0500E000BF7D4805614FF400420021AA
:1005D000384600F095F918B9002008B0BDE8F08160
:1005E0007948FFF7AEFF206800284ED000BF019881
:1005F000401C01900121384600F0F0F800F00400A2
:1006000018B9724901988842F1D37049019888421B
:1006100001D10020E1E7002001904FF48052002139
:10062000384600F06DF908B90020D6E700BF019800
:10063000401C01900121384600F0D0F800F0200065
:1006400018B9624901988842F1D3604901988842FB
:1006500001D10020C1E7002001901021384600F0B0
:10066000BDF8804608F0040018B14FF40060206225
:1006700001E00020206208F0020010B1002060615B
:1006800016E04FF48040606112E0206AC0F3CF00B2
:100690006169C1F34F0140EA01020021384600F0D0
:1006A0002FF908B9002098E76FF07F40FFF749FF66
:1006B0004248056846480540D4E901010843E1681D
:1006C00008432169084361690843A1690843E16956
:1006D0000843216A0843616A0843A16A0843E16A42
:1006E0000843216B0843616B0843054333480560A9
:1006F000D4E90E010843216C0843616C0843A16CE6
:100700000843E16C0843216D0843616D08432B49A0
:100710004860A06D8860E06DC860084685694FF646
:1007200041700540B4F86010606E40EA0140A16E6F
:100730000843E16E0843216F0843616F0843054396
:100740001E488561D4E91E0108431C49C86121483F
:10075000856921480540D4E920010843D4F8881070
:100760000843D4F88C100843D4F890100843D4F808
:1007700094100843D4F898100843D4F89C10084308
:10078000D4F8A0100843054312488561D4E9290133
:100790000843D4F8AC100843D4F8B0100843D4F898
:1007A000B41040EA8100D4F8B810084340F40000C7
:1007B00008490860012010E7008793030080024089
:1007C000002D3101C00E1602FFFF0F00FFFF0400D5
:1007D0000F8120FF00900240233FDEF818B502464B
:1007E0000B460021002000901548016901F01C0112
:1007F0004FF4784000EAC22001434FF4F86000EA69
:100800008310014321F0020141F001010C48016114
:1008100000BF0098401C00900948016901F00100E8
:1008200018B1084C0098A042F3D3064C0098A0429F
:1008300001D1002018BD0248406980B2FAE70000EB
:1008400000800240FFFF04000348006840F0010000
:1008500001490860704700000090024000210160DB
:1008600041608160C160016141618161C16101627A
:1008700041628162C162016341638163C16340215E
:1008800001642021416400218164C16401654165E6
:100890008165C16501668021416600218166C1666E
:1008A000016741678167C1674FF08061C0F88010C0
:1008B0004910C0F884104910C0F88810C910C0F859
:1008C0008C100021C0F89010C0F89410C0F8981057
:1008D000C0F89C10C0F8A0104FF00071C0F8A41030
:1008E0000021C0F8A8104FF40031C0F8AC10491234
:1008F000C0F8B0100021C0F8B410C0F8B8107047AC
:1009000038B503460C4600210020009014480169C8
:1009100001F01C014FF4784000EAC32001434FF47A
:10092000F86000EA8410014341F0020141F0010146
:100930000B484261016100BF0098401C00900848CC
:10094000016901F0010018B1064D0098A842F3D3E7
:10095000044D0098A84201D1002038BD0120FCE7D9
:1009600000800240FFFF040010B54FF4E041024850
:1009700000F0BEF910BD00000014014000B5AFB09A
:1009800001214FF4E03000F075FB012000F0D6F8B3
:100990004FF4004000F0A0FC012000F097FC00BFE5
:1009A0003D2000F06FFC0028FAD00B2000F088FCFE
:1009B000FFF7BCFDFFF748FF00BFFFF7D1FD01289F
:1009C000FBD06846FFF74AFF012000900020079007
:1009D0004FF400700A9000200B900E90119013902D
:1009E000149015904FF480600990002020904FF0F3
:1009F0000070219000112390002025902690042063
:100A00002890C005299040122A9080012B90401216
:100A10002C9040002E9001216846FFF7ADFD01218A
:100A20000248FFF773FD2FB000BD00004000010039
:100A300008B50121084600F04DFB0121042000F01B
:100A400049FB0121082000F045FB0121102000F0A6
:100A500041FB0121202000F03DFB0121402000F05E
:100A600039FB0420ADF8000003208DF802001820A7
:100A70008DF8030069462D4800F066F80220ADF8B5
:100A8000000003208DF8020018208DF8030069464D
:100A9000274800F059F84FF46050ADF800000320EB
:100AA0008DF8020018208DF803006946214800F0F7
:100AB0004BF801214FF0201000F0D2F80320ADF8E0
:100AC00000008DF8020004208DF8030069461748E5
:100AD00000F03AF84FF48060ADF8000003208DF884
:100AE000020004208DF803006946124800F02CF83B
:100AF0004FF4E060ADF8000003208DF80200042000
:100B00008DF8030069460C4800F01EF84FF4807021
:100B1000ADF8000003208DF8020018208DF80300C6
:100B20006946024800F010F808BD000000080140C6
:100B300000100140000C0140001401400149086010
:100B400070470000DC0020422DE9F04102460025FC
:100B50000026002000230024002791F803C00CF099
:100B60000F0591F803C00CF0100CBCF1000F03D07E
:100B700091F802C04CEA050591F800C0BCF1000FE5
:100B800031D0146800202BE04FF0010C0CFA00F378
:100B9000B1F800C00CEA03069E4220D183004FF05A
:100BA0000F0C0CFA03F7BC4305FA03FC4CEA0404EF
:100BB00091F803C0BCF1280F06D14FF0010C0CFADC
:100BC00000FCC2F814C00AE091F803C0BCF1480F61
:100BD00005D14FF0010C0CFA00FCC2F810C0401C0B
:100BE0000828D1D31460B1F800C0BCF1FF0F34DD88
:100BF000546800202EE000F1080C4FF0010808FABC
:100C00000CF3B1F800C00CEA03069E4221D1830028
:100C10004FF00F0C0CFA03F7BC4305FA03FC4CEA47
:100C2000040491F803C0BCF1280F05D100F1080CB1
:100C300008FA0CF8C2F8148091F803C0BCF1480F10
:100C400007D100F1080C4FF0010808FA0CF8C2F8BF
:100C50001080401C0828CED35460BDE8F08100000D
:100C6000F0B50A46002300240021002500F00046CC
:100C7000B6F1004F02D11D4EF16901E01B4E7168C3
:100C8000C0F3034583B200F44016B6F5401F08D107
:100C900021F07061154E766826F07066134F7E6005
:100CA00012E000F48016B6F5801F06D1032606FA7E
:100CB00005F4A14341F0706106E0460D360103FAE8
:100CC00006F6B14341F0706122B1460D360103FAD8
:100CD00006F6314300F00046B6F1004F02D1034E54
:100CE000F16101E0014E7160F0BD000000000140C3
:100CF000416170470161704700BFFEE710B500F029
:100D0000BFF800F061F800F003F800F089F810BDBA
:100D100000B58BB00121084600F0ACF926480090E0
:100D20002648019000200290322003900020049079
:100D30008020059000200690079008904FF4005006
:100D4000099000200A9069461D48FFF7B6FB012173
:100D50001B48FFF7DDFA012202211948FFF7A4FB27
:100D600017481430FFF7E0FA134800901548019037
:100D700010200290642003900020049080200590B1
:100D800000200690079008904FF400500990002032
:100D90000A9069460A481430FFF78FFB01220221AE
:100DA00007481430FFF780FB012105481430FFF796
:100DB000AFFA0BB000BD0000044400407C000020EE
:100DC0006C0002401800002008B526208DF80000B5
:100DD00003208DF801008DF8020001208DF803003A
:100DE000684600F0F9F811208DF8000003208DF816
:100DF00001008DF8020001208DF80300684600F024
:100E0000EBF810208DF8000003208DF801008DF81C
:100E1000020001208DF80300684600F0DDF808BDEF
:100E20001FB5684600F06CFD4FF4E13000900020E3
:100E3000ADF80400ADF80600ADF808000C20ADF8E0
:100E40000A000020ADF80C0069460C4800F0ECFCEC
:100E5000012240F22441094800F0C1FC0122402156
:100E6000064800F089FC01228021044800F084FC3F
:100E70000121024800F074FC1FBD00000044004046
:100E800008B50121202000F025F90121084600F0D5
:100E900021F90121480400F00DF901210820FFF794
:100EA000DFFE2020ADF8000018208DF8030003209D
:100EB0008DF8020069460748FFF746FE4020ADF86E
:100EC000000004208DF8030069460248FFF73CFE4D
:100ED00008BD00000014014010B5FFF7A9FD00F0A7
:100EE00060F8FFF74BFD10BD10B500F003F800F0FF
:100EF00023F810BD0EB50121022000F0DBF86320BD
:100F0000ADF8040041F61F40ADF800000020ADF838
:100F10000600ADF802006946064800F0B7FB012262
:100F20001146044800F0A8FB0121024800F087FBAD
:100F30000EBD00000004004008B51D208DF8000023
:100F400001208DF8010003208DF8020001208DF8AA
:100F50000300684600F040F808BD10B5FFF7C4FF75
:100F600010BD10B5FFF7CAFE10BD000008B5012185
:100F7000202000F0AFF84FF4E040ADF8000003206F
:100F80008DF8020010208DF8030069460248FFF733
:100F9000DBFDFFF7B1FA08BD0014014000BFFEE71A
:100FA000704708B500214FF0006000F057F84FF48B
:100FB000A06000F049F83D208DF8000002208DF877
:100FC000010000208DF8020001208DF80300684622
:100FD00000F002F808BD000070B5002100230F22C8
:100FE000C47804B3154C246804F4E064C4F5E064E8
:100FF000210AC1F10403CA40447804FA03F1847859
:101000001440214309010E4C0678A155047804F0E0
:101010001F050124AC4005786D11AD0005F1E025F8
:10102000C5F8004109E0047804F01F050124AC4034
:10103000044D0678761145F8264070BD0CED00E0B1
:1010400000E400E080E100E002490143024A11604F
:10105000704700000000FA050CED00E0024A0A406B
:101060000243024B1A60704780FFFF1F08ED00E04B
:101070007047000029B1064A52690243044B5A6185
:1010800004E0034A52698243014B5A6170470000F1
:101090000010024029B1064A926A0243044B9A6248
:1010A00004E0034A926A8243014B9A62704700004F
:1010B0000010024029B1064AD2690243044BDA61AA
:1010C00004E0034AD2698243014BDA6170470000B1
:1010D0000010024029B1064A92690243044B9A610A
:1010E00004E0034A92698243014B9A617047000011
:1010F000001002402DE9F0410021002200250023CC
:101100000026002400278C46DFF86081D8F8048090
:1011100008F00C0121B1042907D0082959D109E0B0
:10112000DFF84C81C0F8008058E0DFF84881C0F853
:10113000008053E0DFF83481D8F8048008F470129E
:10114000DFF82881D8F8048008F48035920C0D2A45
:1011500001D0921C00E0062235B9DFF81C8102FBA9
:1011600008F8C0F8008033E0DFF80081D8F82C8060
:1011700008F48036DFF8F480D8F82C8008F00F08E7
:1011800008F1010446B9DFF8EC80B8FBF4F808FB7D
:1011900002F8C0F800801BE0DFF8D080D8F82C807F
:1011A000C8F3031808F10107DFF8C080D8F82C80D5
:1011B000C8F3032808F1020CDFF8B880B8FBF7F891
:1011C00008FB0CF8B8FBF4F808FB02F8C0F8008044
:1011D00004E0DFF89C80C0F8008000BF00BFDFF8AB
:1011E0008C80D8F8048008F0F0010909DFF88C80C1
:1011F00018F80130D0F8008028FA03F8C0F804800D
:10120000DFF86880D8F8048008F4E061090ADFF8A4
:101210006C8018F80130D0F8048028FA03F8C0F880
:101220000880DFF84880D8F8048008F46051C90AC3
:10123000DFF8488018F80130D0F8048028FA03F865
:10124000C0F80C80DFF82480D8F8048008F440410E
:10125000890BDFF82C8018F80130D0F80C80B8FB2F
:10126000F3F8C0F81080BDE8F081000000100240E3
:1012700000127A0040787D0100093D000000002046
:101280001000002010B501460022002300204A1162
:10129000012A02D1094C236806E0022A02D1074C38
:1012A000236A01E0054C636A01F01F0201249440A7
:1012B0001C400CB1012000E0002010BD00100240D5
:1012C0000149C871704700000010024001490867D9
:1012D000704700000000424201460020034AD06AE5
:1012E00020F470400843D0627047000000100240B4
:1012F00070B5064600251348007801281FD1124812
:10130000FFF7B8F8C0F13200C5B2002D17DD00219B
:101310000D48FEF7FDFF002404E00C48005D305549
:10132000601CC4B2AC42F8DB0020064908703220D1
:1013300005496C39086701210348FEF7E9FF284693
:1013400070BD0000160000206C0002407C000020F0
:1013500070B504460D46002624B92846FFF7C8FF9D
:10136000064600BF00BF304670BD70472DE9F04112
:1013700080460D4600272E480078012836D10021EE
:101380002C48FEF7C5FF2B48FFF774F8C6B22A4871
:101390000078801BC7B2002405E0E0192749085CEB
:1013A0000855601CC4B2B442F7DBA819642802DDFA
:1013B000C6F16400C5B2002406E018F80400A119C3
:1013C0001E4A5054601CC4B2AC42F6DB2F46A8192A
:1013D00019490870A8191749091D08600120144906
:1013E000087001211348FEF793FF1DE0002111480A
:1013F000FEF78EFF642D00DD6425002405E018F85B
:1014000004000E490855601CC4B2AC42F7DB2F46FD
:10141000094805700748001D05600120044908704F
:1014200001210448FEF774FF3846BDE8F081000052
:101430001400002080000240150000201800002049
:101440002DE9F04104460D46164600272CB93146D9
:101450002846FFF78BFF074600BF00BF3846BDE8B0
:10146000F08110B500F002F810BD00000CB50020AE
:10147000019000903F48006840F480303D4908608A
:1014800000BF3C48006800F4003000900198401C08
:101490000190009818B90198B0F5A06FF1D13548C6
:1014A000006800F4003010B10120009001E000203D
:1014B0000090009801285CD12F48006840F010008F
:1014C0002D4908600846006820F0030008600846BF
:1014D000006840F0020008602648406825494860DE
:1014E0000846406848600846406840F480604860AC
:1014F0000846C06A214908401E49C8620846C06AB9
:101500001F4908431B49C8620846006840F08060D4
:10151000086000BF1748006800F000600028F9D09C
:101520001448406820F47C1012494860084640681E
:1015300040F4E81048600846006840F08070086099
:1015400000BF0C48006800F000700028F9D009487E
:10155000406820F00300074948600846406840F0B2
:101560000200486000BF0348406800F00C000828F3
:10157000F9D10CBD001002400020024000F0FEFF37
:1015800044060100042808D14FF0E021096941F028
:1015900004014FF0E022116107E04FF0E0210969FA
:1015A00021F004014FF0E022116170477047000004
:1015B00010B51648006840F001001449086008465C
:1015C00040681349084011494860084600681149BD
:1015D00008400E4908600846006820F48020086032
:1015E0000846406820F4FE0048600846006820F085
:1015F000A05008604FF47F0088600020C862FFF7A9
:1016000030FF4FF000600449086010BD0010024038
:101610000000FFF0FFFFF6FE08ED00E010B501212D
:10162000044800F018F818B10121024800F004F84D
:1016300010BD000000040040CA430282704721B17F
:10164000028842F00102028004E002884FF6FE7335
:101650001A400280704730B5024600200023002463
:10166000158A05EA0103958905EA010413B10CB155
:10167000012000E0002030BD1AB183890B43838133
:1016800002E083898B438381704700000022028837
:101690001D4B98420ED01D4B98420BD0B0F1804F9D
:1016A00008D01B4B984205D01A4B984202D01A4BD7
:1016B000984204D14FF68F731A404B881A43174B48
:1016C000984207D0164B984204D04FF6FF431A4079
:1016D000CB881A4302808B8883850B8803850A4B4D
:1016E00098420BD0094B984208D00E4B984205D037
:1016F0000D4B984202D00D4B984201D10B7A0386D4
:101700000123838270470000002C01400034014017
:101710000004004000080040000C004000100040A1
:1017200000140040004001400044014000480140D6
:1017300010B5002440F22441074800F026F848B1D3
:1017400005480088C4B20448001D0088C4B20120C6
:101750000249087010BD000000440040160000203F
:1017600021B1828942F40052828104E082894DF6DF
:10177000FF731A40828170471AB1838A0B438382B8
:1017800002E0838A8B438382704770B5024600244F
:1017900000230025002040F66A16B14200D100BFA8
:1017A000C1F3421501F01F03012606FA03F3012DD0
:1017B00002D19689334006E0022D02D1168A3340C9
:1017C00001E0968A33400C12012606FA04F41688CA
:1017D000344013B10CB1012000E0002070BDF0B521
:1017E0000346002400260025002040F66A17B9426F
:1017F00000D100BF1846C1F3421401F01F060127B3
:1018000007FA06F5012C01D10C3004E0022C01D1BD
:10181000103000E014301AB107682F43076002E06F
:101820000768AF430760F0BD2DE9F04786B0054675
:101830000E460024A24600BFA1460027B08900B191
:1018400000BF2F462C8A4CF6FF700440F0880443FA
:101850002C82AC894EF6F3100440B08831890843DD
:10186000718908430443AC81AC8A4FF6FF400440C1
:10187000B0890443AC8201A8FFF73CFC1F488742B3
:1018800002D1DDF810A001E0DDF80CA0A88900F479
:10189000004040B10AEBCA0000EB0A103168490071
:1018A000B0FBF1F807E00AEBCA0000EB0A10316860
:1018B0008900B0FBF1F86420B8FBF0F004012009C6
:1018C000642101FB1089A88900F4004040B1322056
:1018D00000EBC900B0FBF1F000F00700044308E0A2
:1018E000322000EB09106421B0FBF1F000F00F0092
:1018F00004432C8106B0BDE8F087000000380140A9
:101900004FF41651016000218180C18001810C21BA
:10191000418100218181704700BFFEE710B56FF063
:101920000400FFF72FFE10BD10B50146B1F5E16FC1
:1019300024D201EBC1034FF47A7463434FF0E024E7
:1019400063610023A36123461B6943F00103236104
:1019500000BF4FF0E023186900F001031BB100F451
:101960008033002BF5D04FF0E0231B6923F00103F7
:101970004FF0E02423610023A36152E0002220E025
:10198000284B4FF0E02463610023A36123461B69C9
:1019900043F00103236100BF4FF0E023186900F01A
:1019A00001031BB100F48033002BF5D04FF0E0238E
:1019B0001B6923F001034FF0E02423610023A3619E
:1019C000521C4FF4E163B1FBF3F39342D8D84FF4C8
:1019D000E163B1FBF3F403FB141303EBC3034FF414
:1019E0007A7463434FF0E02463610023A3612346CC
:1019F0001B6943F00103236100BF4FF0E023186926
:101A000000F001031BB100F48033002BF5D04FF040
:101A1000E0231B6923F001034FF0E024236100233E
:101A2000A36110BD4031F7001CB513A103C9CDE976
:101A30000001FFF773FFFFF790FAFFF792FAFFF745
:101A400095FAFFF749FA15E0FEF78EFF4FF47A702A
:101A5000FFF76AFF69460020FFF77AFC20B10522F4
:101A600069460020FFF7ECFCFEF746FD4FF4FA70E4
:101A7000FFF75AFFE8E7000068656C6C6F00000034
:101A8000A01A000800000020180000008C010008C7
:101A9000B81A000818000020F8060000A801000885
:101AA0000000000001020304010203040607080904
:081AB00002040608000000001A
:04000005080001519D
:00000001FF
